{
  "contractName": "ENGNSResolver",
  "abi": [
    {
      "inputs": [
        {
          "name": "engnsAddr",
          "type": "address"
        }
      ],
      "payable": false,
      "stateMutability": "nonpayable",
      "type": "constructor",
      "signature": "constructor"
    },
    {
      "anonymous": false,
      "inputs": [
        {
          "indexed": true,
          "name": "node",
          "type": "bytes32"
        },
        {
          "indexed": false,
          "name": "a",
          "type": "address"
        }
      ],
      "name": "AddrChanged",
      "type": "event",
      "signature": "0x52d7d861f09ab3d26239d492e8968629f95e9e318cf0b73bfddc441522a15fd2"
    },
    {
      "anonymous": false,
      "inputs": [
        {
          "indexed": true,
          "name": "node",
          "type": "bytes32"
        },
        {
          "indexed": false,
          "name": "hash",
          "type": "bytes32"
        }
      ],
      "name": "ContentChanged",
      "type": "event",
      "signature": "0x0424b6fe0d9c3bdbece0e7879dc241bb0c22e900be8b6c168b4ee08bd9bf83bc"
    },
    {
      "anonymous": false,
      "inputs": [
        {
          "indexed": true,
          "name": "node",
          "type": "bytes32"
        },
        {
          "indexed": false,
          "name": "name",
          "type": "string"
        }
      ],
      "name": "NameChanged",
      "type": "event",
      "signature": "0xb7d29e911041e8d9b843369e890bcb72c9388692ba48b65ac54e7214c4c348f7"
    },
    {
      "anonymous": false,
      "inputs": [
        {
          "indexed": true,
          "name": "node",
          "type": "bytes32"
        },
        {
          "indexed": false,
          "name": "indexedKey",
          "type": "string"
        },
        {
          "indexed": false,
          "name": "key",
          "type": "string"
        }
      ],
      "name": "TextChanged",
      "type": "event",
      "signature": "0xd8c9334b1a9c2f9da342a0a2b32629c1a229b6445dad78947f674b44444a7550"
    },
    {
      "anonymous": false,
      "inputs": [
        {
          "indexed": true,
          "name": "node",
          "type": "bytes32"
        },
        {
          "indexed": false,
          "name": "indexedKey",
          "type": "string"
        },
        {
          "indexed": false,
          "name": "hash",
          "type": "bytes"
        }
      ],
      "name": "MultihashChanged",
      "type": "event",
      "signature": "0xfd1bdad6d665d7f42328166098c4bc70be6428920a7fcdde4db35d6de056acce"
    },
    {
      "constant": false,
      "inputs": [
        {
          "name": "node",
          "type": "bytes32"
        },
        {
          "name": "addr",
          "type": "address"
        }
      ],
      "name": "setAddr",
      "outputs": [],
      "payable": false,
      "stateMutability": "nonpayable",
      "type": "function",
      "signature": "0xd5fa2b00"
    },
    {
      "constant": false,
      "inputs": [
        {
          "name": "node",
          "type": "bytes32"
        },
        {
          "name": "hash",
          "type": "bytes32"
        }
      ],
      "name": "setContent",
      "outputs": [],
      "payable": false,
      "stateMutability": "nonpayable",
      "type": "function",
      "signature": "0xc3d014d6"
    },
    {
      "constant": false,
      "inputs": [
        {
          "name": "node",
          "type": "bytes32"
        },
        {
          "name": "key",
          "type": "string"
        },
        {
          "name": "hash",
          "type": "bytes"
        }
      ],
      "name": "setMultihash",
      "outputs": [],
      "payable": false,
      "stateMutability": "nonpayable",
      "type": "function",
      "signature": "0x7f3800ba"
    },
    {
      "constant": false,
      "inputs": [
        {
          "name": "node",
          "type": "bytes32"
        },
        {
          "name": "name",
          "type": "string"
        }
      ],
      "name": "setName",
      "outputs": [],
      "payable": false,
      "stateMutability": "nonpayable",
      "type": "function",
      "signature": "0x77372213"
    },
    {
      "constant": false,
      "inputs": [
        {
          "name": "node",
          "type": "bytes32"
        },
        {
          "name": "key",
          "type": "string"
        },
        {
          "name": "value",
          "type": "string"
        }
      ],
      "name": "setText",
      "outputs": [],
      "payable": false,
      "stateMutability": "nonpayable",
      "type": "function",
      "signature": "0x10f13a8c"
    },
    {
      "constant": true,
      "inputs": [
        {
          "name": "node",
          "type": "bytes32"
        },
        {
          "name": "key",
          "type": "string"
        }
      ],
      "name": "text",
      "outputs": [
        {
          "name": "",
          "type": "string"
        }
      ],
      "payable": false,
      "stateMutability": "view",
      "type": "function",
      "signature": "0x59d1d43c"
    },
    {
      "constant": true,
      "inputs": [
        {
          "name": "node",
          "type": "bytes32"
        }
      ],
      "name": "name",
      "outputs": [
        {
          "name": "",
          "type": "string"
        }
      ],
      "payable": false,
      "stateMutability": "view",
      "type": "function",
      "signature": "0x691f3431"
    },
    {
      "constant": true,
      "inputs": [
        {
          "name": "node",
          "type": "bytes32"
        }
      ],
      "name": "content",
      "outputs": [
        {
          "name": "",
          "type": "bytes32"
        }
      ],
      "payable": false,
      "stateMutability": "view",
      "type": "function",
      "signature": "0x2dff6941"
    },
    {
      "constant": true,
      "inputs": [
        {
          "name": "node",
          "type": "bytes32"
        },
        {
          "name": "key",
          "type": "string"
        }
      ],
      "name": "multihash",
      "outputs": [
        {
          "name": "",
          "type": "bytes"
        }
      ],
      "payable": false,
      "stateMutability": "view",
      "type": "function",
      "signature": "0x67c5d6b1"
    },
    {
      "constant": true,
      "inputs": [
        {
          "name": "node",
          "type": "bytes32"
        }
      ],
      "name": "addr",
      "outputs": [
        {
          "name": "",
          "type": "address"
        }
      ],
      "payable": false,
      "stateMutability": "view",
      "type": "function",
      "signature": "0x3b3b57de"
    },
    {
      "constant": true,
      "inputs": [
        {
          "name": "interfaceID",
          "type": "bytes4"
        }
      ],
      "name": "supportsInterface",
      "outputs": [
        {
          "name": "",
          "type": "bool"
        }
      ],
      "payable": false,
      "stateMutability": "pure",
      "type": "function",
      "signature": "0x01ffc9a7"
    }
  ],
  "bytecode": "0x608060405234801561001057600080fd5b50604051602080610fc2833981016040525160008054600160a060020a03909216600160a060020a0319909216919091179055610f70806100526000396000f3006080604052600436106100ae5763ffffffff7c010000000000000000000000000000000000000000000000000000000060003504166301ffc9a781146100b357806310f13a8c146100e95780632dff6941146101875780633b3b57de146101b157806359d1d43c146101e557806367c5d6b1146102b8578063691f343114610316578063773722131461032e5780637f3800ba1461038c578063c3d014d614610428578063d5fa2b0014610443575b600080fd5b3480156100bf57600080fd5b506100d5600160e060020a031960043516610467565b604080519115158252519081900360200190f35b3480156100f557600080fd5b5060408051602060046024803582810135601f810185900485028601850190965285855261018595833595369560449491939091019190819084018382808284375050604080516020601f89358b018035918201839004830284018301909452808352979a9998810197919650918201945092508291508401838280828437509497506105a09650505050505050565b005b34801561019357600080fd5b5061019f6004356107c6565b60408051918252519081900360200190f35b3480156101bd57600080fd5b506101c96004356107dc565b60408051600160a060020a039092168252519081900360200190f35b3480156101f157600080fd5b5060408051602060046024803582810135601f81018590048502860185019096528585526102439583359536956044949193909101919081908401838280828437509497506107f79650505050505050565b6040805160208082528351818301528351919283929083019185019080838360005b8381101561027d578181015183820152602001610265565b50505050905090810190601f1680156102aa5780820380516001836020036101000a031916815260200191505b509250505060405180910390f35b3480156102c457600080fd5b5060408051602060046024803582810135601f81018590048502860185019096528585526102439583359536956044949193909101919081908401838280828437509497506109009650505050505050565b34801561032257600080fd5b50610243600435610947565b34801561033a57600080fd5b5060408051602060046024803582810135601f81018590048502860185019096528585526101859583359536956044949193909101919081908401838280828437509497506109eb9650505050505050565b34801561039857600080fd5b5060408051602060046024803582810135601f810185900485028601850190965285855261018595833595369560449491939091019190819084018382808284375050604080516020601f89358b018035918201839004830284018301909452808352979a999881019791965091820194509250829150840183828082843750949750610b419650505050505050565b34801561043457600080fd5b50610185600435602435610cc4565b34801561044f57600080fd5b50610185600435600160a060020a0360243516610da5565b6000600160e060020a031982167f3b3b57de0000000000000000000000000000000000000000000000000000000014806104ca5750600160e060020a031982167fd8389dc500000000000000000000000000000000000000000000000000000000145b806104fe5750600160e060020a031982167f691f343100000000000000000000000000000000000000000000000000000000145b806105325750600160e060020a031982167f59d1d43c00000000000000000000000000000000000000000000000000000000145b806105665750600160e060020a031982167fe89401a100000000000000000000000000000000000000000000000000000000145b8061059a5750600160e060020a031982167f01ffc9a700000000000000000000000000000000000000000000000000000000145b92915050565b600080546040805160e060020a6302571be302815260048101879052905186933393600160a060020a0316926302571be39260248083019360209383900390910190829087803b1580156105f357600080fd5b505af1158015610607573d6000803e3d6000fd5b505050506040513d602081101561061d57600080fd5b5051600160a060020a03161461063257600080fd5b6000848152600160209081526040918290209151855185936003019287929182918401908083835b602083106106795780518252601f19909201916020918201910161065a565b51815160209384036101000a600019018019909216911617905292019485525060405193849003810190932084516106ba9591949190910192509050610ea9565b5083600019167fd8c9334b1a9c2f9da342a0a2b32629c1a229b6445dad78947f674b44444a75508484604051808060200180602001838103835285818151815260200191508051906020019080838360005b8381101561072457818101518382015260200161070c565b50505050905090810190601f1680156107515780820380516001836020036101000a031916815260200191505b50838103825284518152845160209182019186019080838360005b8381101561078457818101518382015260200161076c565b50505050905090810190601f1680156107b15780820380516001836020036101000a031916815260200191505b5094505050505060405180910390a250505050565b6000908152600160208190526040909120015490565b600090815260016020526040902054600160a060020a031690565b600082815260016020908152604091829020915183516060936003019285929182918401908083835b6020831061083f5780518252601f199092019160209182019101610820565b518151600019602094850361010090810a820192831692199390931691909117909252949092019687526040805197889003820188208054601f60026001831615909802909501169590950492830182900482028801820190528187529294509250508301828280156108f35780601f106108c8576101008083540402835291602001916108f3565b820191906000526020600020905b8154815290600101906020018083116108d657829003601f168201915b5050505050905092915050565b600082815260016020908152604091829020915183516060936005019285929182918401908083836020831061083f5780518252601f199092019160209182019101610820565b6000818152600160208181526040928390206002908101805485516000199582161561010002959095011691909104601f810183900483028401830190945283835260609390918301828280156109df5780601f106109b4576101008083540402835291602001916109df565b820191906000526020600020905b8154815290600101906020018083116109c257829003601f168201915b50505050509050919050565b600080546040805160e060020a6302571be302815260048101869052905185933393600160a060020a0316926302571be39260248083019360209383900390910190829087803b158015610a3e57600080fd5b505af1158015610a52573d6000803e3d6000fd5b505050506040513d6020811015610a6857600080fd5b5051600160a060020a031614610a7d57600080fd5b60008381526001602090815260409091208351610aa292600290920191850190610ea9565b50604080516020808252845181830152845186937fb7d29e911041e8d9b843369e890bcb72c9388692ba48b65ac54e7214c4c348f79387939092839283019185019080838360005b83811015610b02578181015183820152602001610aea565b50505050905090810190601f168015610b2f5780820380516001836020036101000a031916815260200191505b509250505060405180910390a2505050565b600080546040805160e060020a6302571be302815260048101879052905186933393600160a060020a0316926302571be39260248083019360209383900390910190829087803b158015610b9457600080fd5b505af1158015610ba8573d6000803e3d6000fd5b505050506040513d6020811015610bbe57600080fd5b5051600160a060020a031614610bd357600080fd5b6000848152600160209081526040918290209151855185936005019287929182918401908083835b60208310610c1a5780518252601f199092019160209182019101610bfb565b51815160209384036101000a60001901801990921691161790529201948552506040519384900381019093208451610c5b9591949190910192509050610ea9565b5083600019167ffd1bdad6d665d7f42328166098c4bc70be6428920a7fcdde4db35d6de056acce8484604051808060200180602001838103835285818151815260200191508051906020019080838360008381101561072457818101518382015260200161070c565b600080546040805160e060020a6302571be302815260048101869052905185933393600160a060020a0316926302571be39260248083019360209383900390910190829087803b158015610d1757600080fd5b505af1158015610d2b573d6000803e3d6000fd5b505050506040513d6020811015610d4157600080fd5b5051600160a060020a031614610d5657600080fd5b6000838152600160208181526040928390209091018490558151848152915185927f0424b6fe0d9c3bdbece0e7879dc241bb0c22e900be8b6c168b4ee08bd9bf83bc92908290030190a2505050565b600080546040805160e060020a6302571be302815260048101869052905185933393600160a060020a0316926302571be39260248083019360209383900390910190829087803b158015610df857600080fd5b505af1158015610e0c573d6000803e3d6000fd5b505050506040513d6020811015610e2257600080fd5b5051600160a060020a031614610e3757600080fd5b600083815260016020908152604091829020805473ffffffffffffffffffffffffffffffffffffffff1916600160a060020a0386169081179091558251908152915185927f52d7d861f09ab3d26239d492e8968629f95e9e318cf0b73bfddc441522a15fd292908290030190a2505050565b828054600181600116156101000203166002900490600052602060002090601f016020900481019282601f10610eea57805160ff1916838001178555610f17565b82800160010185558215610f17579182015b82811115610f17578251825591602001919060010190610efc565b50610f23929150610f27565b5090565b610f4191905b80821115610f235760008155600101610f2d565b905600a165627a7a72305820f6f716a046365ccbbd458b894b4cf7b2932d22629394784edfe01ed46fd48cf70029",
  "source": "pragma solidity ^0.4.24;\n\nimport './ENGNS.sol';\n\n/**\n * A simple resolver anyone can use; only allows the owner of a node to set its\n * address.\n */\ncontract ENGNSResolver {\n\n    bytes4 constant INTERFACE_META_ID = 0x01ffc9a7;\n    bytes4 constant ADDR_INTERFACE_ID = 0x3b3b57de;\n    bytes4 constant CONTENT_INTERFACE_ID = 0xd8389dc5;\n    bytes4 constant NAME_INTERFACE_ID = 0x691f3431;\n    bytes4 constant TEXT_INTERFACE_ID = 0x59d1d43c;\n    bytes4 constant MULTIHASH_INTERFACE_ID = 0xe89401a1;\n\n    event AddrChanged(bytes32 indexed node, address a);\n    event ContentChanged(bytes32 indexed node, bytes32 hash);\n    event NameChanged(bytes32 indexed node, string name);\n    event TextChanged(bytes32 indexed node, string indexedKey, string key);\n    event MultihashChanged(bytes32 indexed node, string indexedKey, bytes hash);\n\n    struct PublicKey {\n        bytes32 x;\n        bytes32 y;\n    }\n\n    struct Record {\n        address addr;\n        bytes32 content;\n        string name;\n        mapping(string=>string) text;\n        mapping(uint256=>bytes) abis;\n        mapping(string=>bytes) multihash;\n    }\n\n    ENGNS engns;\n\n    mapping (bytes32 => Record) records;\n\n    modifier only_owner(bytes32 node) {\n        require(engns.owner(node) == msg.sender);\n        _;\n    }\n\n    /**\n     * Constructor.\n     * @param engnsAddr The ENGNS registrar contract.\n     */\n    constructor(ENGNS engnsAddr) public {\n        engns = engnsAddr;\n    }\n\n    /**\n     * Sets the address associated with an ENGNS node.\n     * May only be called by the owner of that node in the ENGNS registry.\n     * @param node The node to update.\n     * @param addr The address to set.\n     */\n    function setAddr(bytes32 node, address addr) public only_owner(node) {\n        records[node].addr = addr;\n        AddrChanged(node, addr);\n    }\n\n    /**\n     * Sets the content hash associated with an ENGNS node.\n     * May only be called by the owner of that node in the ENGNS registry.\n     * Note that this resource type is not standardized, and will likely change\n     * in future to a resource type based on multihash.\n     * @param node The node to update.\n     * @param hash The content hash to set\n     */\n    function setContent(bytes32 node, bytes32 hash) public only_owner(node) {\n        records[node].content = hash;\n        ContentChanged(node, hash);\n    }\n\n    /**\n     * Sets the multihash associated with an ENS node.\n     * May only be called by the owner of that node in the ENS registry.\n     * @param node The node to update.\n     * @param key The key to set.\n     * @param hash The multihash to set.\n     */\n    function setMultihash(bytes32 node, string key, bytes hash) public only_owner(node) {\n        records[node].multihash[key] = hash;\n        MultihashChanged(node, key, hash);\n    }\n    \n    /**\n     * Sets the name associated with an ENGNS node, for reverse records.\n     * May only be called by the owner of that node in the ENGNS registry.\n     * @param node The node to update.\n     * @param name The name to set.\n     */\n    function setName(bytes32 node, string name) public only_owner(node) {\n        records[node].name = name;\n        NameChanged(node, name);\n    }\n\n    /**\n     * Sets the text data associated with an ENGNS node and key.\n     * May only be called by the owner of that node in the ENGNS registry.\n     * @param node The node to update.\n     * @param key The key to set.\n     * @param value The text data value to set.\n     */\n    function setText(bytes32 node, string key, string value) public only_owner(node) {\n        records[node].text[key] = value;\n        TextChanged(node, key, value);\n    }\n\n    /**\n     * Returns the text data associated with an ENGNS node and key.\n     * @param node The ENGNS node to query.\n     * @param key The text data key to query.\n     * @return The associated text data.\n     */\n    function text(bytes32 node, string key) public view returns (string) {\n        return records[node].text[key];\n    }\n\n    /**\n     * Returns the name associated with an ENGNS node, for reverse records.\n     * @param node The ENGNS node to query.\n     * @return The associated name.\n     */\n    function name(bytes32 node) public view returns (string) {\n        return records[node].name;\n    }\n\n    /**\n     * Returns the content hash associated with an ENGNS node.\n     * Note that this resource type is not standardized, and will likely change\n     * in future to a resource type based on multihash.\n     * @param node The ENGNS node to query.\n     * @return The associated content hash.\n     */\n    function content(bytes32 node) public view returns (bytes32) {\n        return records[node].content;\n    }\n\n    /**\n     * Returns the multihash associated with an ENS node.\n     * @param node The ENS node to query.\n     * @param key The multihash data key to query.\n     * @return The associated multihash.\n     */\n    function multihash(bytes32 node, string key) public view returns (bytes) {\n        return records[node].multihash[key];\n    }\n\n    /**\n     * Returns the address associated with an ENGNS node.\n     * @param node The ENGNS node to query.\n     * @return The associated address.\n     */\n    function addr(bytes32 node) public view returns (address) {\n        return records[node].addr;\n    }\n\n    /**\n     * Returns true if the resolver implements the interface specified by the provided hash.\n     * @param interfaceID The ID of the interface to check for.\n     * @return True if the contract implements the requested interface.\n     */\n    function supportsInterface(bytes4 interfaceID) public pure returns (bool) {\n        return interfaceID == ADDR_INTERFACE_ID ||\n        interfaceID == CONTENT_INTERFACE_ID ||\n        interfaceID == NAME_INTERFACE_ID ||\n        interfaceID == TEXT_INTERFACE_ID ||\n        interfaceID == MULTIHASH_INTERFACE_ID ||\n        interfaceID == INTERFACE_META_ID;\n    }\n}",
  "sourcePath": "/Users/ah/Documents/portalNetwork/blockchain/enigma/enigma-template-dapp/contracts/ENGNSResolver.sol",
  "compiler": {
    "name": "solc",
    "version": "0.4.24+commit.e67f0147.Emscripten.clang"
  },
  "schemaVersion": "2.0.0",
  "updatedAt": "2018-10-30T10:48:27.334Z"
}