{
  "contractName": "ENGNSAuction",
  "abi": [
    {
      "constant": true,
      "inputs": [],
      "name": "rewardClaimed",
      "outputs": [
        {
          "name": "",
          "type": "bool"
        }
      ],
      "payable": false,
      "stateMutability": "view",
      "type": "function"
    },
    {
      "constant": true,
      "inputs": [],
      "name": "name",
      "outputs": [
        {
          "name": "",
          "type": "bytes32"
        }
      ],
      "payable": false,
      "stateMutability": "view",
      "type": "function"
    },
    {
      "constant": true,
      "inputs": [
        {
          "name": "",
          "type": "uint256"
        }
      ],
      "name": "bidderAddresses",
      "outputs": [
        {
          "name": "",
          "type": "address"
        }
      ],
      "payable": false,
      "stateMutability": "view",
      "type": "function"
    },
    {
      "constant": true,
      "inputs": [],
      "name": "endTime",
      "outputs": [
        {
          "name": "",
          "type": "uint256"
        }
      ],
      "payable": false,
      "stateMutability": "view",
      "type": "function"
    },
    {
      "constant": true,
      "inputs": [],
      "name": "startTime",
      "outputs": [
        {
          "name": "",
          "type": "uint256"
        }
      ],
      "payable": false,
      "stateMutability": "view",
      "type": "function"
    },
    {
      "constant": true,
      "inputs": [],
      "name": "owner",
      "outputs": [
        {
          "name": "",
          "type": "address"
        }
      ],
      "payable": false,
      "stateMutability": "view",
      "type": "function"
    },
    {
      "constant": true,
      "inputs": [],
      "name": "auctionFactory",
      "outputs": [
        {
          "name": "",
          "type": "address"
        }
      ],
      "payable": false,
      "stateMutability": "view",
      "type": "function"
    },
    {
      "constant": true,
      "inputs": [],
      "name": "enigma",
      "outputs": [
        {
          "name": "",
          "type": "address"
        }
      ],
      "payable": false,
      "stateMutability": "view",
      "type": "function"
    },
    {
      "constant": true,
      "inputs": [],
      "name": "state",
      "outputs": [
        {
          "name": "",
          "type": "uint8"
        }
      ],
      "payable": false,
      "stateMutability": "view",
      "type": "function"
    },
    {
      "constant": true,
      "inputs": [],
      "name": "winningPrice",
      "outputs": [
        {
          "name": "",
          "type": "uint256"
        }
      ],
      "payable": false,
      "stateMutability": "view",
      "type": "function"
    },
    {
      "constant": true,
      "inputs": [],
      "name": "startingPrice",
      "outputs": [
        {
          "name": "",
          "type": "uint256"
        }
      ],
      "payable": false,
      "stateMutability": "view",
      "type": "function"
    },
    {
      "constant": true,
      "inputs": [],
      "name": "winner",
      "outputs": [
        {
          "name": "",
          "type": "address"
        }
      ],
      "payable": false,
      "stateMutability": "view",
      "type": "function"
    },
    {
      "constant": true,
      "inputs": [
        {
          "name": "",
          "type": "address"
        }
      ],
      "name": "stakeAmounts",
      "outputs": [
        {
          "name": "",
          "type": "uint256"
        }
      ],
      "payable": false,
      "stateMutability": "view",
      "type": "function"
    },
    {
      "constant": true,
      "inputs": [
        {
          "name": "",
          "type": "address"
        }
      ],
      "name": "bidders",
      "outputs": [
        {
          "name": "hasBidded",
          "type": "bool"
        },
        {
          "name": "bidValue",
          "type": "bytes"
        }
      ],
      "payable": false,
      "stateMutability": "view",
      "type": "function"
    },
    {
      "inputs": [
        {
          "name": "_owner",
          "type": "address"
        },
        {
          "name": "_auctionLength",
          "type": "uint256"
        },
        {
          "name": "_startingPrice",
          "type": "uint256"
        },
        {
          "name": "_enigma",
          "type": "address"
        },
        {
          "name": "_auctionFactory",
          "type": "address"
        },
        {
          "name": "_name",
          "type": "bytes32"
        }
      ],
      "payable": false,
      "stateMutability": "nonpayable",
      "type": "constructor"
    },
    {
      "anonymous": false,
      "inputs": [
        {
          "indexed": false,
          "name": "bidder",
          "type": "bytes"
        }
      ],
      "name": "Bid",
      "type": "event"
    },
    {
      "anonymous": false,
      "inputs": [
        {
          "indexed": false,
          "name": "winner",
          "type": "address"
        },
        {
          "indexed": false,
          "name": "bidValue",
          "type": "uint256"
        }
      ],
      "name": "Winner",
      "type": "event"
    },
    {
      "anonymous": false,
      "inputs": [
        {
          "indexed": false,
          "name": "owner",
          "type": "address"
        },
        {
          "indexed": false,
          "name": "name",
          "type": "bytes32"
        }
      ],
      "name": "Owner",
      "type": "event"
    },
    {
      "constant": false,
      "inputs": [],
      "name": "stake",
      "outputs": [],
      "payable": true,
      "stateMutability": "payable",
      "type": "function"
    },
    {
      "constant": false,
      "inputs": [],
      "name": "withdraw",
      "outputs": [],
      "payable": false,
      "stateMutability": "nonpayable",
      "type": "function"
    },
    {
      "constant": false,
      "inputs": [
        {
          "name": "_bidValue",
          "type": "bytes"
        }
      ],
      "name": "bid",
      "outputs": [],
      "payable": false,
      "stateMutability": "nonpayable",
      "type": "function"
    },
    {
      "constant": false,
      "inputs": [],
      "name": "endAuction",
      "outputs": [],
      "payable": false,
      "stateMutability": "nonpayable",
      "type": "function"
    },
    {
      "constant": true,
      "inputs": [
        {
          "name": "_bidders",
          "type": "address[]"
        },
        {
          "name": "_bidAmounts",
          "type": "uint256[]"
        },
        {
          "name": "_stakeAmounts",
          "type": "uint256[]"
        }
      ],
      "name": "getHighestBidder",
      "outputs": [
        {
          "name": "",
          "type": "address"
        },
        {
          "name": "",
          "type": "uint256"
        }
      ],
      "payable": false,
      "stateMutability": "pure",
      "type": "function"
    },
    {
      "constant": false,
      "inputs": [
        {
          "name": "_highestBidder",
          "type": "address"
        },
        {
          "name": "_highestBidAmount",
          "type": "uint256"
        }
      ],
      "name": "updateWinner",
      "outputs": [],
      "payable": false,
      "stateMutability": "nonpayable",
      "type": "function"
    },
    {
      "constant": false,
      "inputs": [],
      "name": "claimReward",
      "outputs": [],
      "payable": false,
      "stateMutability": "nonpayable",
      "type": "function"
    },
    {
      "constant": false,
      "inputs": [],
      "name": "claimEther",
      "outputs": [],
      "payable": false,
      "stateMutability": "nonpayable",
      "type": "function"
    },
    {
      "constant": true,
      "inputs": [
        {
          "name": "_bidder",
          "type": "address"
        }
      ],
      "name": "hasBidded",
      "outputs": [
        {
          "name": "",
          "type": "bool"
        }
      ],
      "payable": false,
      "stateMutability": "view",
      "type": "function"
    },
    {
      "constant": true,
      "inputs": [
        {
          "name": "_bidder",
          "type": "address"
        }
      ],
      "name": "getBidValueForBidder",
      "outputs": [
        {
          "name": "",
          "type": "bytes"
        }
      ],
      "payable": false,
      "stateMutability": "view",
      "type": "function"
    },
    {
      "constant": true,
      "inputs": [
        {
          "name": "_bidder",
          "type": "address"
        }
      ],
      "name": "getStakeOfBidder",
      "outputs": [
        {
          "name": "",
          "type": "uint256"
        }
      ],
      "payable": false,
      "stateMutability": "view",
      "type": "function"
    },
    {
      "constant": true,
      "inputs": [],
      "name": "getBidders",
      "outputs": [
        {
          "name": "",
          "type": "address[]"
        }
      ],
      "payable": false,
      "stateMutability": "view",
      "type": "function"
    },
    {
      "constant": true,
      "inputs": [],
      "name": "getWinner",
      "outputs": [
        {
          "name": "",
          "type": "address"
        }
      ],
      "payable": false,
      "stateMutability": "view",
      "type": "function"
    }
  ],
  "bytecode": "0x608060405234801561001057600080fd5b5060405160c0806110c483398101604090815281516020830151918301516060840151608085015160a09095015160008054600160a060020a0319908116600160a060020a03968716178255600594909455426001819055909501600255600a8054841692851692909217909155600b805460a060020a60ff021993169390951692909217169092556004919091556110159081906100af90396000f30060806040526004361061015e5763ffffffff7c010000000000000000000000000000000000000000000000000000000060003504166301b62b78811461016357806306fdde031461018c5780632fb3c48f146101b35780633197cbb6146101e757806331e37530146101fc5780633a4b66f11461021e5780633ccfd60b1461022657806355291dbd1461023b57806378e979251461025057806388901205146102655780638da5cb5b1461034f5780638e7ea5b214610364578063abf4fde414610379578063b24fd5c51461038e578063b88a802f146103a3578063c19d93fb146103b8578063c1f52604146103f1578063cb1e17cf14610406578063cb6632ef1461042a578063d390b2d11461048f578063d6fbf20214610525578063dfbf53ae1461053a578063e5afa5661461054f578063ef4cec1f14610570578063f7b6d1a814610591578063fcc8f793146105b2578063fe67a54b14610656575b600080fd5b34801561016f57600080fd5b5061017861066b565b604080519115158252519081900360200190f35b34801561019857600080fd5b506101a161068d565b60408051918252519081900360200190f35b3480156101bf57600080fd5b506101cb600435610693565b60408051600160a060020a039092168252519081900360200190f35b3480156101f357600080fd5b506101a16106bb565b34801561020857600080fd5b5061021c60048035602481019101356106c1565b005b61021c6107e2565b34801561023257600080fd5b5061021c61081d565b34801561024757600080fd5b5061021c6108a3565b34801561025c57600080fd5b506101a161090f565b34801561027157600080fd5b506040805160206004803580820135838102808601850190965280855261032c95369593946024949385019291829185019084908082843750506040805187358901803560208181028481018201909552818452989b9a998901989297509082019550935083925085019084908082843750506040805187358901803560208181028481018201909552818452989b9a9989019892975090820195509350839250850190849080828437509497506109159650505050505050565b60408051600160a060020a03909316835260208301919091528051918290030190f35b34801561035b57600080fd5b506101cb6109c8565b34801561037057600080fd5b506101cb6109d7565b34801561038557600080fd5b506101cb610a0e565b34801561039a57600080fd5b506101cb610a1d565b3480156103af57600080fd5b5061021c610a2c565b3480156103c457600080fd5b506103cd610b8c565b604051808260028111156103dd57fe5b60ff16815260200191505060405180910390f35b3480156103fd57600080fd5b506101a1610b9c565b34801561041257600080fd5b5061021c600160a060020a0360043516602435610ba2565b34801561043657600080fd5b5061043f610c5a565b60408051602080825283518183015283519192839290830191858101910280838360005b8381101561047b578181015183820152602001610463565b505050509050019250505060405180910390f35b34801561049b57600080fd5b506104b0600160a060020a0360043516610cbc565b6040805160208082528351818301528351919283929083019185019080838360005b838110156104ea5781810151838201526020016104d2565b50505050905090810190601f1680156105175780820380516001836020036101000a031916815260200191505b509250505060405180910390f35b34801561053157600080fd5b506101a1610de2565b34801561054657600080fd5b506101cb610de8565b34801561055b57600080fd5b506101a1600160a060020a0360043516610df7565b34801561057c57600080fd5b50610178600160a060020a0360043516610e09565b34801561059d57600080fd5b506101a1600160a060020a0360043516610e27565b3480156105be57600080fd5b506105d3600160a060020a0360043516610e42565b604051808315151515815260200180602001828103825283818151815260200191508051906020019080838360005b8381101561061a578181015183820152602001610602565b50505050905090810190601f1680156106475780820380516001836020036101000a031916815260200191505b50935050505060405180910390f35b34801561066257600080fd5b5061021c610ef0565b600b547501000000000000000000000000000000000000000000900460ff1681565b60045481565b60098054829081106106a157fe5b600091825260209091200154600160a060020a0316905081565b60025481565b60025442106106cf57600080fd5b6005543360009081526008602052604090205410156106ed57600080fd5b33600090815260076020526040902061070a906001018383610f51565b503360009081526007602052604090205460ff16151561078e57336000818152600760205260408120805460ff191660019081179091556009805491820181559091527f6e1540171b6c0c960b71a7020d9f60077f6af931a8bbf590da0223dacf75c7af01805473ffffffffffffffffffffffffffffffffffffffff191690911790555b7faf79f260d5d20710e65b2ec84855f86a4d8911fb087d40353f63e738e06320b582826040518080602001828103825284848281815260200192508082843760405192018290039550909350505050a15050565b6000600b5460a060020a900460ff1660028111156107fc57fe5b1461080657600080fd5b336000908152600860205260409020805434019055565b60006002600b5460a060020a900460ff16600281111561083957fe5b1461084357600080fd5b336000908152600860205260408120541161085d57600080fd5b5033600081815260086020526040808220805490839055905190929183156108fc02918491818181858888f1935050505015801561089f573d6000803e3d6000fd5b5050565b600054600160a060020a031633146108ba57600080fd5b6002600b5460a060020a900460ff1660028111156108d457fe5b146108de57600080fd5b600654604051339180156108fc02916000818181858888f1935050505015801561090c573d6000803e3d6000fd5b50565b60015481565b6000808080805b87518110156109bb5781878281518110151561093457fe5b906020019060200201511180156109795750858181518110151561095457fe5b90602001906020020151878281518110151561096c57fe5b9060200190602002015111155b156109b357868181518110151561098c57fe5b90602001906020020151915087818151811015156109a657fe5b9060200190602002015192505b60010161091c565b5090969095509350505050565b600054600160a060020a031681565b60006002600b5460a060020a900460ff1660028111156109f357fe5b146109fd57600080fd5b50600354600160a060020a03165b90565b600b54600160a060020a031681565b600a54600160a060020a031681565b6002600b5460a060020a900460ff166002811115610a4657fe5b14610a5057600080fd5b600354600160a060020a03163314610a6757600080fd5b600b547501000000000000000000000000000000000000000000900460ff1615610a9057600080fd5b600b805475ff00000000000000000000000000000000000000000019167501000000000000000000000000000000000000000000179081905560048054604080517f8e7fd2920000000000000000000000000000000000000000000000000000000081529283019190915233602483015251600160a060020a0390921691638e7fd2929160448082019260009290919082900301818387803b158015610b3557600080fd5b505af1158015610b49573d6000803e3d6000fd5b505060045460408051338152602081019290925280517fbc1e72a045637499e0a72a120e8f4802550cf02ff7071fd9db1395f0ae72146e945091829003019150a1565b600b5460a060020a900460ff1681565b60065481565b6003805473ffffffffffffffffffffffffffffffffffffffff1916600160a060020a0384169081179091556006829055600b805474ff0000000000000000000000000000000000000000191674020000000000000000000000000000000000000000179055600081815260086020908152604091829020805485900390558151928352820183905280517f9c2270628a9b29d30ae96b6c4c14ed646ee134febdce38a5b77f2bde9cea2e209281900390910190a15050565b60606009805480602002602001604051908101604052809291908181526020018280548015610cb257602002820191906000526020600020905b8154600160a060020a03168152600190910190602001808311610c94575b5050505050905090565b6060610cc782610e09565b1515610d3457604080517f08c379a000000000000000000000000000000000000000000000000000000000815260206004820152601860248201527f5573657220686173206e6f7420626964646564207965742e0000000000000000604482015290519081900360640190fd5b600160a060020a038216600090815260076020908152604091829020600190810180548451600293821615610100026000190190911692909204601f810184900484028301840190945283825290929091830182828015610dd65780601f10610dab57610100808354040283529160200191610dd6565b820191906000526020600020905b815481529060010190602001808311610db957829003601f168201915b50505050509050919050565b60055481565b600354600160a060020a031681565b60086020526000908152604090205481565b600160a060020a031660009081526007602052604090205460ff1690565b600160a060020a031660009081526008602052604090205490565b6007602090815260009182526040918290208054600180830180548651600261010094831615949094026000190190911692909204601f810186900486028301860190965285825260ff909216949293909290830182828015610ee65780601f10610ebb57610100808354040283529160200191610ee6565b820191906000526020600020905b815481529060010190602001808311610ec957829003601f168201915b5050505050905082565b600054600160a060020a03163314610f0757600080fd5b6000600b5460a060020a900460ff166002811115610f2157fe5b14610f2b57600080fd5b600b805474ff0000000000000000000000000000000000000000191660a060020a179055565b828054600181600116156101000203166002900490600052602060002090601f016020900481019282601f10610f925782800160ff19823516178555610fbf565b82800160010185558215610fbf579182015b82811115610fbf578235825591602001919060010190610fa4565b50610fcb929150610fcf565b5090565b610a0b91905b80821115610fcb5760008155600101610fd55600a165627a7a72305820876af160ca5e043d9b382214f5c8ccad79ab0e441546071f0e2e7e79a3ee7d360029",
  "source": "// Auction.sol\n// Enigma, 2018\n// Implements a simple sealed bid auction.\n\npragma solidity ^0.4.24;\n\nimport \"./Enigma.sol\";\nimport \"./ENGNSAuctionFactory.sol\";\n\ncontract ENGNSAuction {\n\n  /* Determine the state of the auction. */\n  enum AuctionState { IN_PROGRESS, CALCULATING, COMPLETED }\n\n  /* EVENTS */\n  event Bid(bytes bidder);\n  event Winner(address winner, uint bidValue);\n  event Owner(address owner, bytes32 name);\n  /* BIDDER */\n  struct Bidder {\n    bool hasBidded;\n    bytes bidValue;\n  }\n\n  /* STATE VARIABLES */\n  address public owner;\n  uint public startTime;\n  uint public endTime;\n  address public winner;\n  bytes32 public name;\n  uint public startingPrice;\n  uint public winningPrice;\n  mapping(address => Bidder) public bidders;\n  mapping(address => uint) public stakeAmounts;\n  address[] public bidderAddresses;\n  Enigma public enigma;\n  ENGNSAuctionFactory public auctionFactory;\n  AuctionState public state;\n  bool public rewardClaimed;\n\n  /* CONSTRUCTOR */\n  constructor(address _owner, uint _auctionLength, uint _startingPrice, address _enigma, address _auctionFactory, bytes32 _name) public {\n    owner = _owner;\n    startingPrice = _startingPrice;\n    startTime = now;\n    endTime = startTime + _auctionLength * 1 seconds;\n    enigma = Enigma(_enigma);\n    auctionFactory = ENGNSAuctionFactory(_auctionFactory);\n    state = AuctionState.IN_PROGRESS;  // redundant\n    name = _name;\n  }\n\n  /*\n   * Stake Ether in the contract to create a binding commitment. You can increase stake anytime within the bidding period.\n   */\n  function stake() payable external {\n    require(state == AuctionState.IN_PROGRESS);\n    stakeAmounts[msg.sender] += msg.value;\n  }\n\n  /*\n   * Withdraw Ether after the bidding period has ended.\n   */\n  function withdraw() external {\n    require(state == AuctionState.COMPLETED);\n    require(stakeAmounts[msg.sender] > 0);\n    uint amount = stakeAmounts[msg.sender];\n    stakeAmounts[msg.sender] = 0;\n    msg.sender.transfer(amount);\n  }\n\n  /*\n   * Bid in the auction. The value of the bid(in wei) is encrypted.\n   * NOTE: A user can bid multiple times as long as it's within the bidding period.\n   */\n  function bid(bytes _bidValue) external {\n    require(now < endTime);  // a user can only bid within the time period\n    require(stakeAmounts[msg.sender] >= startingPrice);  // a user can only bid if they have enough stake to fill the initial starting value\n    bidders[msg.sender].bidValue = _bidValue;\n    if (!(bidders[msg.sender].hasBidded)) {\n      bidders[msg.sender].hasBidded = true;\n      bidderAddresses.push(msg.sender);\n    }\n    emit Bid(_bidValue);\n  }\n\n  /*\n   * End the auction. Only the creator of the auction can end the auction(when the bidding period has expired).\n   */\n  function endAuction() external isOwner {\n    require(state == AuctionState.IN_PROGRESS);\n    //require(now >= endTime);\n    state = AuctionState.CALCULATING;\n  }\n\n  /*\n   * The callable function. Gets the highest bidder and bid amount for the auction.\n   * NOTE: In the event of a tie, we're just taking the first bidder.\n   */\n  function getHighestBidder(address[] _bidders, uint[] _bidAmounts, uint[] _stakeAmounts) public pure returns (address, uint) {\n    address highestBidder;\n    uint highestBidAmount;\n    for (uint i = 0; i < _bidders.length; i++) {\n      if ((_bidAmounts[i] > highestBidAmount) && (_bidAmounts[i] <= _stakeAmounts[i])) {\n        highestBidAmount = _bidAmounts[i];\n        highestBidder = _bidders[i];\n      }\n    }\n    return (highestBidder, highestBidAmount);\n  }\n\n  /*\n   * The callback function. Updates the contract state.\n   */\n  function updateWinner(address _highestBidder, uint _highestBidAmount) public\n    //onlyEnigma comment this out for testing\n    {\n    winner = _highestBidder;\n    winningPrice = _highestBidAmount;\n    state = AuctionState.COMPLETED;\n    stakeAmounts[_highestBidder] -= winningPrice;\n    emit Winner(_highestBidder, _highestBidAmount);\n  }\n\n  /*\n   * Allow a user to claim their reward.\n   */\n  function claimReward() external {\n    require(state == AuctionState.COMPLETED);\n    require(msg.sender == winner);\n    require(!rewardClaimed);\n    rewardClaimed = true;\n    auctionFactory.trySetSubnodeOwner(name, msg.sender);\n    emit Owner(msg.sender, name);\n    //enigmaCollectible.mintToken(msg.sender, endTime);  // mint an ERC721 Enigma Collectible with arbitrary tokenID (just use the end time)\n  }\n\n  /*\n   * Allow the creator of the auction to claim the winner's stake.\n   */\n  function claimEther() external isOwner {\n    require(state == AuctionState.COMPLETED);\n    msg.sender.transfer(winningPrice);\n  }\n\n  /*\n   * Modifier that checks that the contract caller is the Enigma contract.\n   */\n  modifier onlyEnigma() {\n    require(msg.sender == address(enigma));\n    _;\n  }\n\n  /*\n   * Modifier that checks if the caller is the creator of the auction.\n   */\n  modifier isOwner() {\n    require(msg.sender == owner);\n    _;\n  }\n\n  /*\n   * Check that a user has bidded.\n   */\n  function hasBidded(address _bidder) public view returns (bool) {\n    return bidders[_bidder].hasBidded;\n  }\n\n  /*\n   * Get the encrypted bid value for a bidder.\n   */\n  function getBidValueForBidder(address _bidder) public view returns (bytes) {\n    require(hasBidded(_bidder), \"User has not bidded yet.\");\n    return bidders[_bidder].bidValue;\n  }\n\n  /*\n   * Get the staked Ether amount for a given bidder.\n   */\n  function getStakeOfBidder(address _bidder) public view returns (uint) {\n    return stakeAmounts[_bidder];\n  }\n\n  /*\n   * Get the staked Ether amount for a given bidder.\n   */\n  function getBidders() public view returns (address[]) {\n    return bidderAddresses;\n  }\n\n  /*\n   * Get the winner of the auction (if available).\n   */\n  function getWinner() public view returns(address) {\n    require(state == AuctionState.COMPLETED);\n    return winner;\n  }\n\n}\n",
  "sourcePath": "/Users/ah/Documents/portalNetwork/blockchain/enigma/enigma-template-dapp/contracts/ENGNSAuction.sol",
  "compiler": {
    "name": "solc",
    "version": "0.4.24+commit.e67f0147.Emscripten.clang"
  },
  "schemaVersion": "2.0.0",
  "updatedAt": "2018-10-30T10:48:26.483Z"
}