{
  "contractName": "Raffle",
  "abi": [
    {
      "constant": true,
      "inputs": [],
      "name": "rewardClaimed",
      "outputs": [
        {
          "name": "",
          "type": "bool"
        }
      ],
      "payable": false,
      "stateMutability": "view",
      "type": "function"
    },
    {
      "constant": true,
      "inputs": [],
      "name": "expireTime",
      "outputs": [
        {
          "name": "",
          "type": "uint256"
        }
      ],
      "payable": false,
      "stateMutability": "view",
      "type": "function"
    },
    {
      "constant": true,
      "inputs": [],
      "name": "enigma",
      "outputs": [
        {
          "name": "",
          "type": "address"
        }
      ],
      "payable": false,
      "stateMutability": "view",
      "type": "function"
    },
    {
      "constant": true,
      "inputs": [],
      "name": "winner",
      "outputs": [
        {
          "name": "",
          "type": "address"
        }
      ],
      "payable": false,
      "stateMutability": "view",
      "type": "function"
    },
    {
      "constant": true,
      "inputs": [],
      "name": "enigmaCollectible",
      "outputs": [
        {
          "name": "",
          "type": "address"
        }
      ],
      "payable": false,
      "stateMutability": "view",
      "type": "function"
    },
    {
      "constant": true,
      "inputs": [
        {
          "name": "",
          "type": "address"
        }
      ],
      "name": "entries",
      "outputs": [
        {
          "name": "hasEntered",
          "type": "bool"
        },
        {
          "name": "encryptedAddress",
          "type": "bytes"
        }
      ],
      "payable": false,
      "stateMutability": "view",
      "type": "function"
    },
    {
      "inputs": [
        {
          "name": "_enigma",
          "type": "address"
        },
        {
          "name": "_enigmaCollectible",
          "type": "address"
        },
        {
          "name": "_length",
          "type": "uint256"
        }
      ],
      "payable": false,
      "stateMutability": "nonpayable",
      "type": "constructor"
    },
    {
      "anonymous": false,
      "inputs": [
        {
          "indexed": false,
          "name": "sender",
          "type": "address"
        }
      ],
      "name": "newEntry",
      "type": "event"
    },
    {
      "constant": false,
      "inputs": [
        {
          "name": "_address",
          "type": "bytes"
        }
      ],
      "name": "sendEntry",
      "outputs": [],
      "payable": false,
      "stateMutability": "nonpayable",
      "type": "function"
    },
    {
      "constant": true,
      "inputs": [
        {
          "name": "_addresses",
          "type": "address[]"
        },
        {
          "name": "_rand",
          "type": "uint256"
        }
      ],
      "name": "selectWinner",
      "outputs": [
        {
          "name": "",
          "type": "address"
        }
      ],
      "payable": false,
      "stateMutability": "pure",
      "type": "function"
    },
    {
      "constant": false,
      "inputs": [
        {
          "name": "_winner",
          "type": "address"
        }
      ],
      "name": "updateWinner",
      "outputs": [],
      "payable": false,
      "stateMutability": "nonpayable",
      "type": "function"
    },
    {
      "constant": false,
      "inputs": [],
      "name": "claimReward",
      "outputs": [],
      "payable": false,
      "stateMutability": "nonpayable",
      "type": "function"
    },
    {
      "constant": false,
      "inputs": [
        {
          "name": "_participant",
          "type": "address"
        }
      ],
      "name": "getEntry",
      "outputs": [
        {
          "name": "",
          "type": "bytes"
        }
      ],
      "payable": false,
      "stateMutability": "nonpayable",
      "type": "function"
    }
  ],
  "bytecode": "0x608060405234801561001057600080fd5b50604051606080610921833981016040908152815160208301519190920151600160a060020a038316158015906100505750600354600160a060020a0316155b151561005b57600080fd5b600160a060020a0382161580159061007c5750600454600160a060020a0316155b151561008757600080fd5b60038054600160a060020a03948516600160a060020a03199182161790915560048054939094169216919091179091554201600155610856806100cb6000396000f3006080604052600436106100ae5763ffffffff7c010000000000000000000000000000000000000000000000000000000060003504166301b62b7881146100b357806330e013b4146100dc578063310a1ee3146100fe57806372bb72b1146101255780637db6a4e414610198578063b24fd5c51461022e578063b88a802f14610243578063bf77b3fc14610258578063dfbf53ae14610279578063e945f4261461028e578063f29ee125146102a3575b600080fd5b3480156100bf57600080fd5b506100c8610347565b604080519115158252519081900360200190f35b3480156100e857600080fd5b506100fc6004803560248101910135610368565b005b34801561010a57600080fd5b506101136103e8565b60408051918252519081900360200190f35b34801561013157600080fd5b506040805160206004803580820135838102808601850190965280855261017c9536959394602494938501929182918501908490808284375094975050933594506103ee9350505050565b60408051600160a060020a039092168252519081900360200190f35b3480156101a457600080fd5b506101b9600160a060020a036004351661049f565b6040805160208082528351818301528351919283929083019185019080838360005b838110156101f35781810151838201526020016101db565b50505050905090810190601f1680156102205780820380516001836020036101000a031916815260200191505b509250505060405180910390f35b34801561023a57600080fd5b5061017c610575565b34801561024f57600080fd5b506100fc610584565b34801561026457600080fd5b506100fc600160a060020a0360043516610680565b34801561028557600080fd5b5061017c6106c6565b34801561029a57600080fd5b5061017c6106d5565b3480156102af57600080fd5b506102c4600160a060020a03600435166106e4565b604051808315151515815260200180602001828103825283818151815260200191508051906020019080838360005b8381101561030b5781810151838201526020016102f3565b50505050905090810190601f1680156103385780820380516001836020036101000a031916815260200191505b50935050505060405180910390f35b60045474010000000000000000000000000000000000000000900460ff1681565b600154421061037657600080fd5b3360009081526020819052604090205460ff161561039357600080fd5b3360009081526020819052604090206103b090600101838361078f565b506040805133815290517f25e0563e840d0dc97b4d8aa8556c6d9337b3872e49345b58f245a8b135d088d99181900360200190a15050565b60015481565b600080835183600101604051602001808281526020019150506040516020818303038152906040526040518082805190602001908083835b602083106104455780518252601f199092019160209182019101610426565b5181516020939093036101000a600019018019909116921691909117905260405192018290039091209250505081151561047b57fe5b069050838181518110151561048c57fe5b9060200190602002015191505092915050565b600160a060020a03811660009081526020819052604090205460609060ff1615156104c957600080fd5b600160a060020a03821660009081526020818152604091829020600190810180548451600293821615610100026000190190911692909204601f8101849004840283018401909452838252909290918301828280156105695780601f1061053e57610100808354040283529160200191610569565b820191906000526020600020905b81548152906001019060200180831161054c57829003601f168201915b50505050509050919050565b600354600160a060020a031681565b600254600160a060020a0316331461059b57600080fd5b60045474010000000000000000000000000000000000000000900460ff16156105c357600080fd5b6004805474ff000000000000000000000000000000000000000019167401000000000000000000000000000000000000000017808255600154604080517f79c650680000000000000000000000000000000000000000000000000000000081523394810194909452602484019190915251600160a060020a03909116916379c6506891604480830192600092919082900301818387803b15801561066657600080fd5b505af115801561067a573d6000803e3d6000fd5b50505050565b600354600160a060020a0316331461069757600080fd5b6002805473ffffffffffffffffffffffffffffffffffffffff1916600160a060020a0392909216919091179055565b600254600160a060020a031681565b600454600160a060020a031681565b600060208181529181526040908190208054600180830180548551600261010094831615949094026000190190911692909204601f810187900487028301870190955284825260ff90921694929390928301828280156107855780601f1061075a57610100808354040283529160200191610785565b820191906000526020600020905b81548152906001019060200180831161076857829003601f168201915b5050505050905082565b828054600181600116156101000203166002900490600052602060002090601f016020900481019282601f106107d05782800160ff198235161785556107fd565b828001600101855582156107fd579182015b828111156107fd5782358255916020019190600101906107e2565b5061080992915061080d565b5090565b61082791905b808211156108095760008155600101610813565b905600a165627a7a72305820cb8d583ddee4b115538b2839cc94557c858545daec013494207f683e287e98820029",
  "source": "// Raffle.sol\n// Enigma, 2018\n// Creates a raffle for an NFT.\n// UNTESTED\n\npragma solidity ^0.4.24;\n\nimport \"./Enigma.sol\";\nimport \"./EnigmaCollectible.sol\";\n\ncontract Raffle {\n\n  event newEntry(address sender);\n\n  struct Entry {\n    bool hasEntered;\n    bytes encryptedAddress;\n  }\n\n  mapping(address => Entry) public entries;\n  uint public expireTime;\n  address public winner;\n  Enigma public enigma;\n  EnigmaCollectible public enigmaCollectible;\n  bool public rewardClaimed;\n\n  constructor(address _enigma, address _enigmaCollectible, uint _length) public {\n    require(_enigma != 0 && address(enigma) == 0);\n    require(_enigmaCollectible != 0 && address(enigmaCollectible) == 0);\n    enigma = Enigma(_enigma);\n    enigmaCollectible = EnigmaCollectible(_enigmaCollectible);\n    expireTime = now + _length;\n  }\n\n  function sendEntry(bytes _address) external {\n    require(now < expireTime);\n    require(!entries[msg.sender].hasEntered);\n    entries[msg.sender].encryptedAddress = _address;\n    emit newEntry(msg.sender);\n  }\n\n  function selectWinner(address[] _addresses, uint _rand) public pure returns (address) {\n    uint index = uint(keccak256(abi.encodePacked(_rand + 1))) % _addresses.length;\n    return _addresses[index];\n  }\n\n  function updateWinner(address _winner) public onlyEnigma {\n    winner = _winner;\n  }\n\n  function claimReward() external {\n    require(msg.sender == winner);\n    require(!rewardClaimed);\n    rewardClaimed = true;\n    enigmaCollectible.mintToken(msg.sender, expireTime);  // mint an ERC721 Enigma Collectible with arbitrary tokenID (just use the end time)\n  }\n\n  function getEntry(address _participant) public returns (bytes) {\n    require(entries[_participant].hasEntered);\n    return entries[_participant].encryptedAddress;\n  }\n\n  modifier onlyEnigma() {\n    require(msg.sender == address(enigma));\n    _;\n  }\n\n\n}\n",
  "sourcePath": "/Users/ah/Documents/portalNetwork/blockchain/enigma/enigma-template-dapp/contracts/Raffle.sol",
  "compiler": {
    "name": "solc",
    "version": "0.4.24+commit.e67f0147.Emscripten.clang"
  },
  "schemaVersion": "2.0.0",
  "updatedAt": "2018-10-30T02:40:22.197Z"
}