{
  "contractName": "AuctionFactory",
  "abi": [
    {
      "constant": true,
      "inputs": [],
      "name": "enigmaAddress",
      "outputs": [
        {
          "name": "",
          "type": "address"
        }
      ],
      "payable": false,
      "stateMutability": "view",
      "type": "function"
    },
    {
      "constant": true,
      "inputs": [
        {
          "name": "",
          "type": "uint256"
        }
      ],
      "name": "auctions",
      "outputs": [
        {
          "name": "",
          "type": "address"
        }
      ],
      "payable": false,
      "stateMutability": "view",
      "type": "function"
    },
    {
      "constant": true,
      "inputs": [],
      "name": "enigmaCollectibleAddress",
      "outputs": [
        {
          "name": "",
          "type": "address"
        }
      ],
      "payable": false,
      "stateMutability": "view",
      "type": "function"
    },
    {
      "constant": true,
      "inputs": [],
      "name": "engns",
      "outputs": [
        {
          "name": "",
          "type": "address"
        }
      ],
      "payable": false,
      "stateMutability": "view",
      "type": "function"
    },
    {
      "constant": true,
      "inputs": [
        {
          "name": "",
          "type": "bytes32"
        }
      ],
      "name": "nodes",
      "outputs": [
        {
          "name": "",
          "type": "address"
        }
      ],
      "payable": false,
      "stateMutability": "view",
      "type": "function"
    },
    {
      "constant": true,
      "inputs": [],
      "name": "rootNode",
      "outputs": [
        {
          "name": "",
          "type": "bytes32"
        }
      ],
      "payable": false,
      "stateMutability": "view",
      "type": "function"
    },
    {
      "inputs": [
        {
          "name": "_enigmaAddress",
          "type": "address"
        },
        {
          "name": "_engns",
          "type": "address"
        }
      ],
      "payable": false,
      "stateMutability": "nonpayable",
      "type": "constructor"
    },
    {
      "anonymous": false,
      "inputs": [
        {
          "indexed": false,
          "name": "auction",
          "type": "address"
        }
      ],
      "name": "newAuction",
      "type": "event"
    },
    {
      "constant": false,
      "inputs": [
        {
          "name": "_auctionLength",
          "type": "uint256"
        },
        {
          "name": "_startingPrice",
          "type": "uint256"
        }
      ],
      "name": "createAuction",
      "outputs": [
        {
          "name": "",
          "type": "address"
        }
      ],
      "payable": false,
      "stateMutability": "nonpayable",
      "type": "function"
    },
    {
      "constant": true,
      "inputs": [],
      "name": "getAuctionAddresses",
      "outputs": [
        {
          "name": "",
          "type": "address[]"
        }
      ],
      "payable": false,
      "stateMutability": "view",
      "type": "function"
    }
  ],
  "bytecode": "0x608060405234801561001057600080fd5b5060405160408061141483398101604052805160209091015160038054600160a060020a03938416600160a060020a031991821617909155600080549390921692169190911790556113ad806100676000396000f30060806040526004361061008d5763ffffffff7c01000000000000000000000000000000000000000000000000000000006000350416630121683f811461009257806344f97995146100c95780634802ae24146100de578063571a26a0146101435780636d17fe1c1461015b578063a23cdb8814610170578063d86e697d14610185578063faff50a81461019d575b600080fd5b34801561009e57600080fd5b506100ad6004356024356101c4565b60408051600160a060020a039092168252519081900360200190f35b3480156100d557600080fd5b506100ad6102cb565b3480156100ea57600080fd5b506100f36102da565b60408051602080825283518183015283519192839290830191858101910280838360005b8381101561012f578181015183820152602001610117565b505050509050019250505060405180910390f35b34801561014f57600080fd5b506100ad60043561033c565b34801561016757600080fd5b506100ad610364565b34801561017c57600080fd5b506100ad610373565b34801561019157600080fd5b506100ad600435610382565b3480156101a957600080fd5b506101b261039d565b60408051918252519081900360200190f35b6003546000908190339085908590600160a060020a0316306101e46103a3565b600160a060020a03958616815260208101949094526040808501939093529084166060840152909216608082015290519081900360a001906000f080158015610231573d6000803e3d6000fd5b50600280546001810182556000919091527f405787fa12a823e0f2b7631cc41b3ba8828b3321ca811111fa75cd3aa3bb5ace018054600160a060020a03831673ffffffffffffffffffffffffffffffffffffffff19909116811790915560408051918252519192507f9dc2853fa05a54e1c31cb87878685b663faa3f2d8e0d88ea64903bfa5c4fa5af919081900360200190a15092915050565b600354600160a060020a031681565b6060600280548060200260200160405190810160405280929190818152602001828054801561033257602002820191906000526020600020905b8154600160a060020a03168152600190910190602001808311610314575b5050505050905090565b600280548290811061034a57fe5b600091825260209091200154600160a060020a0316905081565b600454600160a060020a031681565b600054600160a060020a031681565b600560205260009081526040902054600160a060020a031681565b60015481565b604051610fce806103b4833901905600608060405234801561001057600080fd5b5060405160a080610fce8339810160409081528151602083015191830151606084015160809094015160008054600160a060020a03948516600160a060020a03199182161782556004939093554260018190559094016002556009805495841695831695909517909455600a80549290941691161760a060020a60ff021916909155610f2c9081906100a290396000f3006080604052600436106101535763ffffffff7c010000000000000000000000000000000000000000000000000000000060003504166301b62b7881146101585780632fb3c48f146101815780633197cbb6146101b557806331e37530146101dc5780633a4b66f1146101fe5780633ccfd60b1461020657806355291dbd1461021b57806378e979251461023057806388901205146102455780638da5cb5b1461032f5780638e7ea5b214610344578063abf4fde414610359578063b24fd5c51461036e578063b88a802f14610383578063c19d93fb14610398578063c1f52604146103d1578063cb1e17cf146103e6578063cb6632ef1461040a578063d390b2d11461046f578063d6fbf20214610505578063dfbf53ae1461051a578063e5afa5661461052f578063ef4cec1f14610550578063f7b6d1a814610571578063fcc8f79314610592578063fe67a54b14610636575b600080fd5b34801561016457600080fd5b5061016d61064b565b604080519115158252519081900360200190f35b34801561018d57600080fd5b5061019960043561066d565b60408051600160a060020a039092168252519081900360200190f35b3480156101c157600080fd5b506101ca610695565b60408051918252519081900360200190f35b3480156101e857600080fd5b506101fc600480356024810191013561069b565b005b6101fc6107bc565b34801561021257600080fd5b506101fc6107f7565b34801561022757600080fd5b506101fc61087d565b34801561023c57600080fd5b506101ca6108e9565b34801561025157600080fd5b506040805160206004803580820135838102808601850190965280855261030c95369593946024949385019291829185019084908082843750506040805187358901803560208181028481018201909552818452989b9a998901989297509082019550935083925085019084908082843750506040805187358901803560208181028481018201909552818452989b9a9989019892975090820195509350839250850190849080828437509497506108ef9650505050505050565b60408051600160a060020a03909316835260208301919091528051918290030190f35b34801561033b57600080fd5b506101996109a2565b34801561035057600080fd5b506101996109b1565b34801561036557600080fd5b506101996109e8565b34801561037a57600080fd5b506101996109f7565b34801561038f57600080fd5b506101fc610a06565b3480156103a457600080fd5b506103ad610aa3565b604051808260028111156103bd57fe5b60ff16815260200191505060405180910390f35b3480156103dd57600080fd5b506101ca610ab3565b3480156103f257600080fd5b506101fc600160a060020a0360043516602435610ab9565b34801561041657600080fd5b5061041f610b71565b60408051602080825283518183015283519192839290830191858101910280838360005b8381101561045b578181015183820152602001610443565b505050509050019250505060405180910390f35b34801561047b57600080fd5b50610490600160a060020a0360043516610bd3565b6040805160208082528351818301528351919283929083019185019080838360005b838110156104ca5781810151838201526020016104b2565b50505050905090810190601f1680156104f75780820380516001836020036101000a031916815260200191505b509250505060405180910390f35b34801561051157600080fd5b506101ca610cf9565b34801561052657600080fd5b50610199610cff565b34801561053b57600080fd5b506101ca600160a060020a0360043516610d0e565b34801561055c57600080fd5b5061016d600160a060020a0360043516610d20565b34801561057d57600080fd5b506101ca600160a060020a0360043516610d3e565b34801561059e57600080fd5b506105b3600160a060020a0360043516610d59565b604051808315151515815260200180602001828103825283818151815260200191508051906020019080838360005b838110156105fa5781810151838201526020016105e2565b50505050905090810190601f1680156106275780820380516001836020036101000a031916815260200191505b50935050505060405180910390f35b34801561064257600080fd5b506101fc610e07565b600a547501000000000000000000000000000000000000000000900460ff1681565b600880548290811061067b57fe5b600091825260209091200154600160a060020a0316905081565b60025481565b60025442106106a957600080fd5b6004543360009081526007602052604090205410156106c757600080fd5b3360009081526006602052604090206106e4906001018383610e68565b503360009081526006602052604090205460ff16151561076857336000818152600660205260408120805460ff191660019081179091556008805491820181559091527ff3f7a9fe364faab93b216da50a3214154f22a0a2b415b23a84c8169e8b636ee301805473ffffffffffffffffffffffffffffffffffffffff191690911790555b7faf79f260d5d20710e65b2ec84855f86a4d8911fb087d40353f63e738e06320b582826040518080602001828103825284848281815260200192508082843760405192018290039550909350505050a15050565b6000600a5460a060020a900460ff1660028111156107d657fe5b146107e057600080fd5b336000908152600760205260409020805434019055565b60006002600a5460a060020a900460ff16600281111561081357fe5b1461081d57600080fd5b336000908152600760205260408120541161083757600080fd5b5033600081815260076020526040808220805490839055905190929183156108fc02918491818181858888f19350505050158015610879573d6000803e3d6000fd5b5050565b600054600160a060020a0316331461089457600080fd5b6002600a5460a060020a900460ff1660028111156108ae57fe5b146108b857600080fd5b600554604051339180156108fc02916000818181858888f193505050501580156108e6573d6000803e3d6000fd5b50565b60015481565b6000808080805b87518110156109955781878281518110151561090e57fe5b906020019060200201511180156109535750858181518110151561092e57fe5b90602001906020020151878281518110151561094657fe5b9060200190602002015111155b1561098d57868181518110151561096657fe5b906020019060200201519150878181518110151561098057fe5b9060200190602002015192505b6001016108f6565b5090969095509350505050565b600054600160a060020a031681565b60006002600a5460a060020a900460ff1660028111156109cd57fe5b146109d757600080fd5b50600354600160a060020a03165b90565b600a54600160a060020a031681565b600954600160a060020a031681565b6002600a5460a060020a900460ff166002811115610a2057fe5b14610a2a57600080fd5b600354600160a060020a03163314610a4157600080fd5b600a547501000000000000000000000000000000000000000000900460ff1615610a6a57600080fd5b600a805475ff00000000000000000000000000000000000000000019167501000000000000000000000000000000000000000000179055565b600a5460a060020a900460ff1681565b60055481565b6003805473ffffffffffffffffffffffffffffffffffffffff1916600160a060020a0384169081179091556005829055600a805474ff0000000000000000000000000000000000000000191674020000000000000000000000000000000000000000179055600081815260076020908152604091829020805485900390558151928352820183905280517f9c2270628a9b29d30ae96b6c4c14ed646ee134febdce38a5b77f2bde9cea2e209281900390910190a15050565b60606008805480602002602001604051908101604052809291908181526020018280548015610bc957602002820191906000526020600020905b8154600160a060020a03168152600190910190602001808311610bab575b5050505050905090565b6060610bde82610d20565b1515610c4b57604080517f08c379a000000000000000000000000000000000000000000000000000000000815260206004820152601860248201527f5573657220686173206e6f7420626964646564207965742e0000000000000000604482015290519081900360640190fd5b600160a060020a038216600090815260066020908152604091829020600190810180548451600293821615610100026000190190911692909204601f810184900484028301840190945283825290929091830182828015610ced5780601f10610cc257610100808354040283529160200191610ced565b820191906000526020600020905b815481529060010190602001808311610cd057829003601f168201915b50505050509050919050565b60045481565b600354600160a060020a031681565b60076020526000908152604090205481565b600160a060020a031660009081526006602052604090205460ff1690565b600160a060020a031660009081526007602052604090205490565b6006602090815260009182526040918290208054600180830180548651600261010094831615949094026000190190911692909204601f810186900486028301860190965285825260ff909216949293909290830182828015610dfd5780601f10610dd257610100808354040283529160200191610dfd565b820191906000526020600020905b815481529060010190602001808311610de057829003601f168201915b5050505050905082565b600054600160a060020a03163314610e1e57600080fd5b6000600a5460a060020a900460ff166002811115610e3857fe5b14610e4257600080fd5b600a805474ff0000000000000000000000000000000000000000191660a060020a179055565b828054600181600116156101000203166002900490600052602060002090601f016020900481019282601f10610ea95782800160ff19823516178555610ed6565b82800160010185558215610ed6579182015b82811115610ed6578235825591602001919060010190610ebb565b50610ee2929150610ee6565b5090565b6109e591905b80821115610ee25760008155600101610eec5600a165627a7a723058203d2310902e61b2f105b447c1e77faa64d5d8dfd6e60fd9a66140d98705304bf50029a165627a7a72305820fe9586e859f081125daaf172bbced94bcf5c4f60a4dfab37876604b4e32a5d910029",
  "source": "// AuctionFactory.sol\n// Enigma, 2018\n// Proxy for deploying Auction contracts.\n\npragma solidity ^0.4.18;\n\nimport \"./ENGNSAuction.sol\";\nimport \"./ENGNS.sol\";\n\ncontract AuctionFactory {\n  /* EVENTS */\n  event newAuction(address auction);\n\n  /* STATE VARIABLES */\n  ENGNS public engns;\n  bytes32 public rootNode;\n  address[] public auctions;\n  address public enigmaAddress;\n  address public enigmaCollectibleAddress;\n  mapping(bytes32 => address) public nodes;\n  \n  /* CONSTRUCTOR */\n  constructor(address _enigmaAddress, ENGNS _engns) public {\n    // require(_enigmaAddress != 0 && enigmaAddress == 0);\n    // require(_engns != 0 && engns == 0);\n    enigmaAddress = _enigmaAddress;\n    engns = _engns;\n  }\n\n  /*\n   * Creates a new auction.\n   * NOTE: _startingPrice must be specified in wei.\n   */\n  function createAuction(uint _auctionLength, uint _startingPrice) external returns (address) {\n    Auction auction = new Auction(msg.sender, _auctionLength, _startingPrice, enigmaAddress, this);\n    auctions.push(auction);\n    emit newAuction(auction);\n  }\n\n  /**\n    * @dev Assign the owner in ENS, if we're still the registrar\n    *\n    * @param _hash hash to change owner\n    * @param _newOwner new owner to transfer to\n    */\n  function trySetSubnodeOwner(bytes32 _hash, address _newOwner) internal {\n      if (engns.owner(rootNode) == address(this))\n          engns.setSubnodeOwner(rootNode, _hash, _newOwner);\n  }\n  /*\n   * Get every auction address created.\n   */\n  function getAuctionAddresses() public view returns (address[]) {\n    return auctions;\n  }\n\n}",
  "sourcePath": "/Users/ah/Documents/portalNetwork/blockchain/enigma/enigma-template-dapp/contracts/ENGNSAuctionFactory.sol",
  "compiler": {
    "name": "solc",
    "version": "0.4.24+commit.e67f0147.Emscripten.clang"
  },
  "schemaVersion": "2.0.0",
  "updatedAt": "2018-10-30T02:40:22.126Z"
}