{
  "contractName": "ENGNSAuctionFactory",
  "abi": [
    {
      "constant": true,
      "inputs": [
        {
          "name": "",
          "type": "bytes32"
        }
      ],
      "name": "auctions",
      "outputs": [
        {
          "name": "",
          "type": "address"
        }
      ],
      "payable": false,
      "stateMutability": "view",
      "type": "function"
    },
    {
      "constant": true,
      "inputs": [],
      "name": "enigmaAddress",
      "outputs": [
        {
          "name": "",
          "type": "address"
        }
      ],
      "payable": false,
      "stateMutability": "view",
      "type": "function"
    },
    {
      "constant": true,
      "inputs": [],
      "name": "enigmaCollectibleAddress",
      "outputs": [
        {
          "name": "",
          "type": "address"
        }
      ],
      "payable": false,
      "stateMutability": "view",
      "type": "function"
    },
    {
      "constant": true,
      "inputs": [],
      "name": "engns",
      "outputs": [
        {
          "name": "",
          "type": "address"
        }
      ],
      "payable": false,
      "stateMutability": "view",
      "type": "function"
    },
    {
      "constant": true,
      "inputs": [],
      "name": "rootNode",
      "outputs": [
        {
          "name": "",
          "type": "bytes32"
        }
      ],
      "payable": false,
      "stateMutability": "view",
      "type": "function"
    },
    {
      "inputs": [
        {
          "name": "_enigmaAddress",
          "type": "address"
        },
        {
          "name": "_engns",
          "type": "address"
        },
        {
          "name": "_rootNode",
          "type": "bytes32"
        }
      ],
      "payable": false,
      "stateMutability": "nonpayable",
      "type": "constructor"
    },
    {
      "anonymous": false,
      "inputs": [
        {
          "indexed": false,
          "name": "auction",
          "type": "address"
        }
      ],
      "name": "newAuction",
      "type": "event"
    },
    {
      "constant": false,
      "inputs": [
        {
          "name": "_auctionLength",
          "type": "uint256"
        },
        {
          "name": "_startingPrice",
          "type": "uint256"
        },
        {
          "name": "_name",
          "type": "bytes32"
        }
      ],
      "name": "createAuction",
      "outputs": [
        {
          "name": "",
          "type": "address"
        }
      ],
      "payable": false,
      "stateMutability": "nonpayable",
      "type": "function"
    },
    {
      "constant": false,
      "inputs": [
        {
          "name": "_hash",
          "type": "bytes32"
        },
        {
          "name": "_newOwner",
          "type": "address"
        }
      ],
      "name": "trySetSubnodeOwner",
      "outputs": [],
      "payable": false,
      "stateMutability": "nonpayable",
      "type": "function"
    },
    {
      "constant": true,
      "inputs": [
        {
          "name": "_name",
          "type": "bytes32"
        }
      ],
      "name": "getAuctionAddress",
      "outputs": [
        {
          "name": "",
          "type": "address"
        }
      ],
      "payable": false,
      "stateMutability": "view",
      "type": "function"
    }
  ],
  "bytecode": "0x608060405234801561001057600080fd5b506040516060806115a683398101604090815281516020830151919092015160028054600160a060020a03948516600160a060020a03199182161790915560008054949093169316929092179055600155611536806100706000396000f30060806040526004361061008d5763ffffffff7c01000000000000000000000000000000000000000000000000000000006000350416631edbc5be811461009257806344f97995146100c65780636d17fe1c146100db57806386d8c2e8146100f05780638e7fd29214610108578063a23cdb881461012e578063b2dff14e14610143578063faff50a814610161575b600080fd5b34801561009e57600080fd5b506100aa600435610188565b60408051600160a060020a039092168252519081900360200190f35b3480156100d257600080fd5b506100aa6101a3565b3480156100e757600080fd5b506100aa6101b2565b3480156100fc57600080fd5b506100aa6004356101c1565b34801561011457600080fd5b5061012c600435600160a060020a03602435166101dc565b005b34801561013a57600080fd5b506100aa610315565b34801561014f57600080fd5b506100aa600435602435604435610324565b34801561016d57600080fd5b50610176610430565b60408051918252519081900360200190f35b600460205260009081526040902054600160a060020a031681565b600254600160a060020a031681565b600354600160a060020a031681565b600090815260046020526040902054600160a060020a031690565b60008054600154604080517f02571be30000000000000000000000000000000000000000000000000000000081526004810192909252513093600160a060020a03909316926302571be392602480820193602093909283900390910190829087803b15801561024a57600080fd5b505af115801561025e573d6000803e3d6000fd5b505050506040513d602081101561027457600080fd5b5051600160a060020a031614156103115760008054600154604080517f06ab5923000000000000000000000000000000000000000000000000000000008152600481019290925260248201869052600160a060020a03858116604484015290519216926306ab59239260648084019382900301818387803b1580156102f857600080fd5b505af115801561030c573d6000803e3d6000fd5b505050505b5050565b600054600160a060020a031681565b6000818152600460205260408120548190600160a060020a03161561034857600080fd5b600254339086908690600160a060020a03163087610364610436565b600160a060020a03968716815260208101959095526040808601949094529185166060850152909316608083015260a082019290925290519081900360c001906000f0801580156103b9573d6000803e3d6000fd5b50600084815260046020908152604091829020805473ffffffffffffffffffffffffffffffffffffffff1916600160a060020a038516908117909155825190815291519293507f9dc2853fa05a54e1c31cb87878685b663faa3f2d8e0d88ea64903bfa5c4fa5af92918290030190a1509392505050565b60015481565b6040516110c480610447833901905600608060405234801561001057600080fd5b5060405160c0806110c483398101604090815281516020830151918301516060840151608085015160a09095015160008054600160a060020a0319908116600160a060020a03968716178255600594909455426001819055909501600255600a8054841692851692909217909155600b805460a060020a60ff021993169390951692909217169092556004919091556110159081906100af90396000f30060806040526004361061015e5763ffffffff7c010000000000000000000000000000000000000000000000000000000060003504166301b62b78811461016357806306fdde031461018c5780632fb3c48f146101b35780633197cbb6146101e757806331e37530146101fc5780633a4b66f11461021e5780633ccfd60b1461022657806355291dbd1461023b57806378e979251461025057806388901205146102655780638da5cb5b1461034f5780638e7ea5b214610364578063abf4fde414610379578063b24fd5c51461038e578063b88a802f146103a3578063c19d93fb146103b8578063c1f52604146103f1578063cb1e17cf14610406578063cb6632ef1461042a578063d390b2d11461048f578063d6fbf20214610525578063dfbf53ae1461053a578063e5afa5661461054f578063ef4cec1f14610570578063f7b6d1a814610591578063fcc8f793146105b2578063fe67a54b14610656575b600080fd5b34801561016f57600080fd5b5061017861066b565b604080519115158252519081900360200190f35b34801561019857600080fd5b506101a161068d565b60408051918252519081900360200190f35b3480156101bf57600080fd5b506101cb600435610693565b60408051600160a060020a039092168252519081900360200190f35b3480156101f357600080fd5b506101a16106bb565b34801561020857600080fd5b5061021c60048035602481019101356106c1565b005b61021c6107e2565b34801561023257600080fd5b5061021c61081d565b34801561024757600080fd5b5061021c6108a3565b34801561025c57600080fd5b506101a161090f565b34801561027157600080fd5b506040805160206004803580820135838102808601850190965280855261032c95369593946024949385019291829185019084908082843750506040805187358901803560208181028481018201909552818452989b9a998901989297509082019550935083925085019084908082843750506040805187358901803560208181028481018201909552818452989b9a9989019892975090820195509350839250850190849080828437509497506109159650505050505050565b60408051600160a060020a03909316835260208301919091528051918290030190f35b34801561035b57600080fd5b506101cb6109c8565b34801561037057600080fd5b506101cb6109d7565b34801561038557600080fd5b506101cb610a0e565b34801561039a57600080fd5b506101cb610a1d565b3480156103af57600080fd5b5061021c610a2c565b3480156103c457600080fd5b506103cd610b8c565b604051808260028111156103dd57fe5b60ff16815260200191505060405180910390f35b3480156103fd57600080fd5b506101a1610b9c565b34801561041257600080fd5b5061021c600160a060020a0360043516602435610ba2565b34801561043657600080fd5b5061043f610c5a565b60408051602080825283518183015283519192839290830191858101910280838360005b8381101561047b578181015183820152602001610463565b505050509050019250505060405180910390f35b34801561049b57600080fd5b506104b0600160a060020a0360043516610cbc565b6040805160208082528351818301528351919283929083019185019080838360005b838110156104ea5781810151838201526020016104d2565b50505050905090810190601f1680156105175780820380516001836020036101000a031916815260200191505b509250505060405180910390f35b34801561053157600080fd5b506101a1610de2565b34801561054657600080fd5b506101cb610de8565b34801561055b57600080fd5b506101a1600160a060020a0360043516610df7565b34801561057c57600080fd5b50610178600160a060020a0360043516610e09565b34801561059d57600080fd5b506101a1600160a060020a0360043516610e27565b3480156105be57600080fd5b506105d3600160a060020a0360043516610e42565b604051808315151515815260200180602001828103825283818151815260200191508051906020019080838360005b8381101561061a578181015183820152602001610602565b50505050905090810190601f1680156106475780820380516001836020036101000a031916815260200191505b50935050505060405180910390f35b34801561066257600080fd5b5061021c610ef0565b600b547501000000000000000000000000000000000000000000900460ff1681565b60045481565b60098054829081106106a157fe5b600091825260209091200154600160a060020a0316905081565b60025481565b60025442106106cf57600080fd5b6005543360009081526008602052604090205410156106ed57600080fd5b33600090815260076020526040902061070a906001018383610f51565b503360009081526007602052604090205460ff16151561078e57336000818152600760205260408120805460ff191660019081179091556009805491820181559091527f6e1540171b6c0c960b71a7020d9f60077f6af931a8bbf590da0223dacf75c7af01805473ffffffffffffffffffffffffffffffffffffffff191690911790555b7faf79f260d5d20710e65b2ec84855f86a4d8911fb087d40353f63e738e06320b582826040518080602001828103825284848281815260200192508082843760405192018290039550909350505050a15050565b6000600b5460a060020a900460ff1660028111156107fc57fe5b1461080657600080fd5b336000908152600860205260409020805434019055565b60006002600b5460a060020a900460ff16600281111561083957fe5b1461084357600080fd5b336000908152600860205260408120541161085d57600080fd5b5033600081815260086020526040808220805490839055905190929183156108fc02918491818181858888f1935050505015801561089f573d6000803e3d6000fd5b5050565b600054600160a060020a031633146108ba57600080fd5b6002600b5460a060020a900460ff1660028111156108d457fe5b146108de57600080fd5b600654604051339180156108fc02916000818181858888f1935050505015801561090c573d6000803e3d6000fd5b50565b60015481565b6000808080805b87518110156109bb5781878281518110151561093457fe5b906020019060200201511180156109795750858181518110151561095457fe5b90602001906020020151878281518110151561096c57fe5b9060200190602002015111155b156109b357868181518110151561098c57fe5b90602001906020020151915087818151811015156109a657fe5b9060200190602002015192505b60010161091c565b5090969095509350505050565b600054600160a060020a031681565b60006002600b5460a060020a900460ff1660028111156109f357fe5b146109fd57600080fd5b50600354600160a060020a03165b90565b600b54600160a060020a031681565b600a54600160a060020a031681565b6002600b5460a060020a900460ff166002811115610a4657fe5b14610a5057600080fd5b600354600160a060020a03163314610a6757600080fd5b600b547501000000000000000000000000000000000000000000900460ff1615610a9057600080fd5b600b805475ff00000000000000000000000000000000000000000019167501000000000000000000000000000000000000000000179081905560048054604080517f8e7fd2920000000000000000000000000000000000000000000000000000000081529283019190915233602483015251600160a060020a0390921691638e7fd2929160448082019260009290919082900301818387803b158015610b3557600080fd5b505af1158015610b49573d6000803e3d6000fd5b505060045460408051338152602081019290925280517fbc1e72a045637499e0a72a120e8f4802550cf02ff7071fd9db1395f0ae72146e945091829003019150a1565b600b5460a060020a900460ff1681565b60065481565b6003805473ffffffffffffffffffffffffffffffffffffffff1916600160a060020a0384169081179091556006829055600b805474ff0000000000000000000000000000000000000000191674020000000000000000000000000000000000000000179055600081815260086020908152604091829020805485900390558151928352820183905280517f9c2270628a9b29d30ae96b6c4c14ed646ee134febdce38a5b77f2bde9cea2e209281900390910190a15050565b60606009805480602002602001604051908101604052809291908181526020018280548015610cb257602002820191906000526020600020905b8154600160a060020a03168152600190910190602001808311610c94575b5050505050905090565b6060610cc782610e09565b1515610d3457604080517f08c379a000000000000000000000000000000000000000000000000000000000815260206004820152601860248201527f5573657220686173206e6f7420626964646564207965742e0000000000000000604482015290519081900360640190fd5b600160a060020a038216600090815260076020908152604091829020600190810180548451600293821615610100026000190190911692909204601f810184900484028301840190945283825290929091830182828015610dd65780601f10610dab57610100808354040283529160200191610dd6565b820191906000526020600020905b815481529060010190602001808311610db957829003601f168201915b50505050509050919050565b60055481565b600354600160a060020a031681565b60086020526000908152604090205481565b600160a060020a031660009081526007602052604090205460ff1690565b600160a060020a031660009081526008602052604090205490565b6007602090815260009182526040918290208054600180830180548651600261010094831615949094026000190190911692909204601f810186900486028301860190965285825260ff909216949293909290830182828015610ee65780601f10610ebb57610100808354040283529160200191610ee6565b820191906000526020600020905b815481529060010190602001808311610ec957829003601f168201915b5050505050905082565b600054600160a060020a03163314610f0757600080fd5b6000600b5460a060020a900460ff166002811115610f2157fe5b14610f2b57600080fd5b600b805474ff0000000000000000000000000000000000000000191660a060020a179055565b828054600181600116156101000203166002900490600052602060002090601f016020900481019282601f10610f925782800160ff19823516178555610fbf565b82800160010185558215610fbf579182015b82811115610fbf578235825591602001919060010190610fa4565b50610fcb929150610fcf565b5090565b610a0b91905b80821115610fcb5760008155600101610fd55600a165627a7a72305820876af160ca5e043d9b382214f5c8ccad79ab0e441546071f0e2e7e79a3ee7d360029a165627a7a723058208a996092480e6e1b035daa774343fd34037b63bd1ca1c60269b7b4d9089743ce0029",
  "source": "// AuctionFactory.sol\n// Enigma, 2018\n// Proxy for deploying Auction contracts.\n\npragma solidity ^0.4.18;\n\nimport \"./ENGNSAuction.sol\";\nimport \"./ENGNS.sol\";\n\ncontract ENGNSAuctionFactory {\n  /* EVENTS */\n  event newAuction(address auction);\n\n  /* STATE VARIABLES */\n  ENGNS public engns;\n  bytes32 public rootNode;\n  address public enigmaAddress;\n  address public enigmaCollectibleAddress;\n  mapping(bytes32 => address) public auctions;\n  \n  /* CONSTRUCTOR */\n  constructor(address _enigmaAddress, ENGNS _engns, bytes32 _rootNode) public {\n    // require(_enigmaAddress != 0 && enigmaAddress == 0);\n    // require(_engns != 0 && engns == 0);\n    enigmaAddress = _enigmaAddress;\n    engns = _engns;\n    rootNode = _rootNode;\n  }\n\n  /*\n   * Creates a new auction.\n   * NOTE: _startingPrice must be specified in wei.\n   */\n  function createAuction(uint _auctionLength, uint _startingPrice, bytes32 _name) external returns (address) {\n    require(auctions[_name] == 0);\n    ENGNSAuction auction = new ENGNSAuction(msg.sender, _auctionLength, _startingPrice, enigmaAddress, this, _name);\n    auctions[_name] = auction;\n    emit newAuction(auction);\n  }\n\n  /**\n    * @dev Assign the owner in ENS, if we're still the registrar\n    *\n    * @param _hash hash to change owner\n    * @param _newOwner new owner to transfer to\n    */\n  function trySetSubnodeOwner(bytes32 _hash, address _newOwner) external {\n      if (engns.owner(rootNode) == address(this))\n          engns.setSubnodeOwner(rootNode, _hash, _newOwner);\n  }\n  /*\n   * Get every auction address created.\n   */\n  function getAuctionAddress(bytes32 _name) public view returns (address) {\n    return auctions[_name];\n  }\n\n}",
  "sourcePath": "/Users/ah/Documents/portalNetwork/blockchain/enigma/enigma-template-dapp/contracts/ENGNSAuctionFactory.sol",
  "compiler": {
    "name": "solc",
    "version": "0.4.24+commit.e67f0147.Emscripten.clang"
  },
  "schemaVersion": "2.0.0",
  "updatedAt": "2018-10-30T10:48:27.321Z"
}