{
  "contractName": "EnigmaCollectible",
  "abi": [
    {
      "constant": true,
      "inputs": [
        {
          "name": "_interfaceId",
          "type": "bytes4"
        }
      ],
      "name": "supportsInterface",
      "outputs": [
        {
          "name": "",
          "type": "bool"
        }
      ],
      "payable": false,
      "stateMutability": "view",
      "type": "function"
    },
    {
      "constant": true,
      "inputs": [],
      "name": "name",
      "outputs": [
        {
          "name": "",
          "type": "string"
        }
      ],
      "payable": false,
      "stateMutability": "view",
      "type": "function"
    },
    {
      "constant": true,
      "inputs": [
        {
          "name": "_tokenId",
          "type": "uint256"
        }
      ],
      "name": "getApproved",
      "outputs": [
        {
          "name": "",
          "type": "address"
        }
      ],
      "payable": false,
      "stateMutability": "view",
      "type": "function"
    },
    {
      "constant": false,
      "inputs": [
        {
          "name": "_to",
          "type": "address"
        },
        {
          "name": "_tokenId",
          "type": "uint256"
        }
      ],
      "name": "approve",
      "outputs": [],
      "payable": false,
      "stateMutability": "nonpayable",
      "type": "function"
    },
    {
      "constant": true,
      "inputs": [],
      "name": "totalSupply",
      "outputs": [
        {
          "name": "",
          "type": "uint256"
        }
      ],
      "payable": false,
      "stateMutability": "view",
      "type": "function"
    },
    {
      "constant": true,
      "inputs": [],
      "name": "InterfaceId_ERC165",
      "outputs": [
        {
          "name": "",
          "type": "bytes4"
        }
      ],
      "payable": false,
      "stateMutability": "view",
      "type": "function"
    },
    {
      "constant": false,
      "inputs": [
        {
          "name": "_from",
          "type": "address"
        },
        {
          "name": "_to",
          "type": "address"
        },
        {
          "name": "_tokenId",
          "type": "uint256"
        }
      ],
      "name": "transferFrom",
      "outputs": [],
      "payable": false,
      "stateMutability": "nonpayable",
      "type": "function"
    },
    {
      "constant": true,
      "inputs": [
        {
          "name": "_owner",
          "type": "address"
        },
        {
          "name": "_index",
          "type": "uint256"
        }
      ],
      "name": "tokenOfOwnerByIndex",
      "outputs": [
        {
          "name": "",
          "type": "uint256"
        }
      ],
      "payable": false,
      "stateMutability": "view",
      "type": "function"
    },
    {
      "constant": false,
      "inputs": [
        {
          "name": "_from",
          "type": "address"
        },
        {
          "name": "_to",
          "type": "address"
        },
        {
          "name": "_tokenId",
          "type": "uint256"
        }
      ],
      "name": "safeTransferFrom",
      "outputs": [],
      "payable": false,
      "stateMutability": "nonpayable",
      "type": "function"
    },
    {
      "constant": true,
      "inputs": [
        {
          "name": "_tokenId",
          "type": "uint256"
        }
      ],
      "name": "exists",
      "outputs": [
        {
          "name": "",
          "type": "bool"
        }
      ],
      "payable": false,
      "stateMutability": "view",
      "type": "function"
    },
    {
      "constant": true,
      "inputs": [
        {
          "name": "_index",
          "type": "uint256"
        }
      ],
      "name": "tokenByIndex",
      "outputs": [
        {
          "name": "",
          "type": "uint256"
        }
      ],
      "payable": false,
      "stateMutability": "view",
      "type": "function"
    },
    {
      "constant": true,
      "inputs": [
        {
          "name": "_tokenId",
          "type": "uint256"
        }
      ],
      "name": "ownerOf",
      "outputs": [
        {
          "name": "",
          "type": "address"
        }
      ],
      "payable": false,
      "stateMutability": "view",
      "type": "function"
    },
    {
      "constant": true,
      "inputs": [
        {
          "name": "_owner",
          "type": "address"
        }
      ],
      "name": "balanceOf",
      "outputs": [
        {
          "name": "",
          "type": "uint256"
        }
      ],
      "payable": false,
      "stateMutability": "view",
      "type": "function"
    },
    {
      "constant": true,
      "inputs": [],
      "name": "symbol",
      "outputs": [
        {
          "name": "",
          "type": "string"
        }
      ],
      "payable": false,
      "stateMutability": "view",
      "type": "function"
    },
    {
      "constant": false,
      "inputs": [
        {
          "name": "_to",
          "type": "address"
        },
        {
          "name": "_approved",
          "type": "bool"
        }
      ],
      "name": "setApprovalForAll",
      "outputs": [],
      "payable": false,
      "stateMutability": "nonpayable",
      "type": "function"
    },
    {
      "constant": false,
      "inputs": [
        {
          "name": "_from",
          "type": "address"
        },
        {
          "name": "_to",
          "type": "address"
        },
        {
          "name": "_tokenId",
          "type": "uint256"
        },
        {
          "name": "_data",
          "type": "bytes"
        }
      ],
      "name": "safeTransferFrom",
      "outputs": [],
      "payable": false,
      "stateMutability": "nonpayable",
      "type": "function"
    },
    {
      "constant": true,
      "inputs": [
        {
          "name": "_tokenId",
          "type": "uint256"
        }
      ],
      "name": "tokenURI",
      "outputs": [
        {
          "name": "",
          "type": "string"
        }
      ],
      "payable": false,
      "stateMutability": "view",
      "type": "function"
    },
    {
      "constant": true,
      "inputs": [
        {
          "name": "_owner",
          "type": "address"
        },
        {
          "name": "_operator",
          "type": "address"
        }
      ],
      "name": "isApprovedForAll",
      "outputs": [
        {
          "name": "",
          "type": "bool"
        }
      ],
      "payable": false,
      "stateMutability": "view",
      "type": "function"
    },
    {
      "inputs": [
        {
          "name": "_name",
          "type": "string"
        },
        {
          "name": "_symbol",
          "type": "string"
        }
      ],
      "payable": false,
      "stateMutability": "nonpayable",
      "type": "constructor"
    },
    {
      "anonymous": false,
      "inputs": [
        {
          "indexed": true,
          "name": "_from",
          "type": "address"
        },
        {
          "indexed": true,
          "name": "_to",
          "type": "address"
        },
        {
          "indexed": true,
          "name": "_tokenId",
          "type": "uint256"
        }
      ],
      "name": "Transfer",
      "type": "event"
    },
    {
      "anonymous": false,
      "inputs": [
        {
          "indexed": true,
          "name": "_owner",
          "type": "address"
        },
        {
          "indexed": true,
          "name": "_approved",
          "type": "address"
        },
        {
          "indexed": true,
          "name": "_tokenId",
          "type": "uint256"
        }
      ],
      "name": "Approval",
      "type": "event"
    },
    {
      "anonymous": false,
      "inputs": [
        {
          "indexed": true,
          "name": "_owner",
          "type": "address"
        },
        {
          "indexed": true,
          "name": "_operator",
          "type": "address"
        },
        {
          "indexed": false,
          "name": "_approved",
          "type": "bool"
        }
      ],
      "name": "ApprovalForAll",
      "type": "event"
    },
    {
      "constant": false,
      "inputs": [
        {
          "name": "_to",
          "type": "address"
        },
        {
          "name": "_tokenId",
          "type": "uint256"
        }
      ],
      "name": "mintToken",
      "outputs": [],
      "payable": false,
      "stateMutability": "nonpayable",
      "type": "function"
    }
  ],
  "bytecode": "0x60806040523480156200001157600080fd5b506040516200125738038062001257833981016040528051602082015190820191018181620000697f01ffc9a7000000000000000000000000000000000000000000000000000000006401000000006200016f810204565b6200009d7f80ac58cd000000000000000000000000000000000000000000000000000000006401000000006200016f810204565b620000d17f4f558e79000000000000000000000000000000000000000000000000000000006401000000006200016f810204565b8151620000e6906005906020850190620001dc565b508051620000fc906006906020840190620001dc565b50620001317f780e9d63000000000000000000000000000000000000000000000000000000006401000000006200016f810204565b620001657f5b5e139f000000000000000000000000000000000000000000000000000000006401000000006200016f810204565b5050505062000281565b7fffffffff0000000000000000000000000000000000000000000000000000000080821614156200019f57600080fd5b7fffffffff00000000000000000000000000000000000000000000000000000000166000908152602081905260409020805460ff19166001179055565b828054600181600116156101000203166002900490600052602060002090601f016020900481019282601f106200021f57805160ff19168380011785556200024f565b828001600101855582156200024f579182015b828111156200024f57825182559160200191906001019062000232565b506200025d92915062000261565b5090565b6200027e91905b808211156200025d576000815560010162000268565b90565b610fc680620002916000396000f3006080604052600436106101065763ffffffff7c010000000000000000000000000000000000000000000000000000000060003504166301ffc9a7811461010b57806306fdde0314610141578063081812fc146101cb578063095ea7b3146101ff57806318160ddd1461022557806319fa8f501461024c57806323b872dd1461027e5780632f745c59146102a857806342842e0e146102cc5780634f558e79146102f65780634f6ccce71461030e5780636352211e1461032657806370a082311461033e57806379c650681461035f57806395d89b4114610383578063a22cb46514610398578063b88d4fde146103be578063c87b56dd1461042d578063e985e9c514610445575b600080fd5b34801561011757600080fd5b5061012d600160e060020a03196004351661046c565b604080519115158252519081900360200190f35b34801561014d57600080fd5b5061015661048b565b6040805160208082528351818301528351919283929083019185019080838360005b83811015610190578181015183820152602001610178565b50505050905090810190601f1680156101bd5780820380516001836020036101000a031916815260200191505b509250505060405180910390f35b3480156101d757600080fd5b506101e3600435610522565b60408051600160a060020a039092168252519081900360200190f35b34801561020b57600080fd5b50610223600160a060020a036004351660243561053d565b005b34801561023157600080fd5b5061023a6105f3565b60408051918252519081900360200190f35b34801561025857600080fd5b506102616105f9565b60408051600160e060020a03199092168252519081900360200190f35b34801561028a57600080fd5b50610223600160a060020a036004358116906024351660443561061d565b3480156102b457600080fd5b5061023a600160a060020a03600435166024356106c0565b3480156102d857600080fd5b50610223600160a060020a036004358116906024351660443561070d565b34801561030257600080fd5b5061012d60043561072e565b34801561031a57600080fd5b5061023a60043561074b565b34801561033257600080fd5b506101e3600435610780565b34801561034a57600080fd5b5061023a600160a060020a03600435166107aa565b34801561036b57600080fd5b50610223600160a060020a03600435166024356107dd565b34801561038f57600080fd5b506101566107eb565b3480156103a457600080fd5b50610223600160a060020a0360043516602435151561084c565b3480156103ca57600080fd5b50604080516020601f60643560048181013592830184900484028501840190955281845261022394600160a060020a0381358116956024803590921695604435953695608494019181908401838280828437509497506108d09650505050505050565b34801561043957600080fd5b506101566004356108f8565b34801561045157600080fd5b5061012d600160a060020a03600435811690602435166109ad565b600160e060020a03191660009081526020819052604090205460ff1690565b60058054604080516020601f60026000196101006001881615020190951694909404938401819004810282018101909252828152606093909290918301828280156105175780601f106104ec57610100808354040283529160200191610517565b820191906000526020600020905b8154815290600101906020018083116104fa57829003601f168201915b505050505090505b90565b600090815260026020526040902054600160a060020a031690565b600061054882610780565b9050600160a060020a03838116908216141561056357600080fd5b33600160a060020a038216148061057f575061057f81336109ad565b151561058a57600080fd5b600082815260026020526040808220805473ffffffffffffffffffffffffffffffffffffffff1916600160a060020a0387811691821790925591518593918516917f8c5be1e5ebec7d5bd14f71427d1e84f3dd0314c0f7b2291e5b200ac8c7c3b92591a4505050565b60095490565b7f01ffc9a70000000000000000000000000000000000000000000000000000000081565b61062733826109db565b151561063257600080fd5b600160a060020a038316151561064757600080fd5b600160a060020a038216151561065c57600080fd5b6106668382610a3a565b6106708382610aa9565b61067a8282610bb0565b8082600160a060020a031684600160a060020a03167fddf252ad1be2c89b69c2b068fc378daa952ba7f163c4a11628f55a4df523b3ef60405160405180910390a4505050565b60006106cb836107aa565b82106106d657600080fd5b600160a060020a03831660009081526007602052604090208054839081106106fa57fe5b9060005260206000200154905092915050565b61072983838360206040519081016040528060008152506108d0565b505050565b600090815260016020526040902054600160a060020a0316151590565b60006107556105f3565b821061076057600080fd5b600980548390811061076e57fe5b90600052602060002001549050919050565b600081815260016020526040812054600160a060020a03168015156107a457600080fd5b92915050565b6000600160a060020a03821615156107c157600080fd5b50600160a060020a031660009081526003602052604090205490565b6107e78282610bf9565b5050565b60068054604080516020601f60026000196101006001881615020190951694909404938401819004810282018101909252828152606093909290918301828280156105175780601f106104ec57610100808354040283529160200191610517565b600160a060020a03821633141561086257600080fd5b336000818152600460209081526040808320600160a060020a03871680855290835292819020805460ff1916861515908117909155815190815290519293927f17307eab39ab6107e8899845ad3d59bd9653f200f220920489ca2b5937696c31929181900390910190a35050565b6108db84848461061d565b6108e784848484610c48565b15156108f257600080fd5b50505050565b60606109038261072e565b151561090e57600080fd5b6000828152600b602090815260409182902080548351601f6002600019610100600186161502019093169290920491820184900484028101840190945280845290918301828280156109a15780601f10610976576101008083540402835291602001916109a1565b820191906000526020600020905b81548152906001019060200180831161098457829003601f168201915b50505050509050919050565b600160a060020a03918216600090815260046020908152604080832093909416825291909152205460ff1690565b6000806109e783610780565b905080600160a060020a031684600160a060020a03161480610a22575083600160a060020a0316610a1784610522565b600160a060020a0316145b80610a325750610a3281856109ad565b949350505050565b81600160a060020a0316610a4d82610780565b600160a060020a031614610a6057600080fd5b600081815260026020526040902054600160a060020a0316156107e7576000908152600260205260409020805473ffffffffffffffffffffffffffffffffffffffff1916905550565b6000806000610ab88585610db5565b600084815260086020908152604080832054600160a060020a0389168452600790925290912054909350610af390600163ffffffff610e4b16565b600160a060020a038616600090815260076020526040902080549193509083908110610b1b57fe5b90600052602060002001549050806007600087600160a060020a0316600160a060020a0316815260200190815260200160002084815481101515610b5b57fe5b6000918252602080832090910192909255600160a060020a0387168152600790915260409020805490610b92906000198301610f5d565b50600093845260086020526040808520859055908452909220555050565b6000610bbc8383610e5d565b50600160a060020a039091166000908152600760209081526040808320805460018101825590845282842081018590559383526008909152902055565b610c038282610eed565b600980546000838152600a60205260408120829055600182018355919091527f6e1540171b6c0c960b71a7020d9f60077f6af931a8bbf590da0223dacf75c7af015550565b600080610c5d85600160a060020a0316610f48565b1515610c6c5760019150610dac565b6040517f150b7a020000000000000000000000000000000000000000000000000000000081523360048201818152600160a060020a03898116602485015260448401889052608060648501908152875160848601528751918a169463150b7a0294938c938b938b93909160a490910190602085019080838360005b83811015610cff578181015183820152602001610ce7565b50505050905090810190601f168015610d2c5780820380516001836020036101000a031916815260200191505b5095505050505050602060405180830381600087803b158015610d4e57600080fd5b505af1158015610d62573d6000803e3d6000fd5b505050506040513d6020811015610d7857600080fd5b5051600160e060020a031981167f150b7a020000000000000000000000000000000000000000000000000000000014925090505b50949350505050565b81600160a060020a0316610dc882610780565b600160a060020a031614610ddb57600080fd5b600160a060020a038216600090815260036020526040902054610e0590600163ffffffff610e4b16565b600160a060020a03909216600090815260036020908152604080832094909455918152600190915220805473ffffffffffffffffffffffffffffffffffffffff19169055565b600082821115610e5757fe5b50900390565b600081815260016020526040902054600160a060020a031615610e7f57600080fd5b6000818152600160208181526040808420805473ffffffffffffffffffffffffffffffffffffffff1916600160a060020a0388169081179091558452600390915290912054610ecd91610f50565b600160a060020a0390921660009081526003602052604090209190915550565b600160a060020a0382161515610f0257600080fd5b610f0c8282610bb0565b6040518190600160a060020a038416906000907fddf252ad1be2c89b69c2b068fc378daa952ba7f163c4a11628f55a4df523b3ef908290a45050565b6000903b1190565b818101828110156107a457fe5b8154818355818111156107295760008381526020902061072991810190830161051f91905b80821115610f965760008155600101610f82565b50905600a165627a7a72305820fcb099030fe6da8080e9974e9f87b30e630bca4be792e3575f31ec985852bfe60029",
  "source": "// EnigmaCollectible.sol\n// Enigma, 2018\n// Creates an ERC721 token using OpenZeppelin.\n\npragma solidity ^0.4.24;\n\nimport \"openzeppelin-solidity/contracts/token/ERC721/ERC721Token.sol\";\n\ncontract EnigmaCollectible is ERC721Token {\n\n  /*\n   * Create OpenZeppelin ERC721 token.\n   */\n  constructor (string _name, string _symbol) public ERC721Token(_name, _symbol) {\n\n  }\n\n  /*\n   * Wrapper for minting a new ERC721 token.\n   */\n  function mintToken(address _to, uint _tokenId) public {\n    super._mint(_to, _tokenId);\n  }\n\n}\n",
  "sourcePath": "/Users/ah/Documents/portalNetwork/blockchain/enigma/enigma-template-dapp/contracts/EnigmaCollectible.sol",
  "compiler": {
    "name": "solc",
    "version": "0.4.24+commit.e67f0147.Emscripten.clang"
  },
  "schemaVersion": "2.0.0",
  "updatedAt": "2018-10-30T10:48:27.311Z"
}